:02000002D0002C
:1040000000400D00F0690D00000006000C000501E5
:0840100004017E050000000020
:04401800EC650D0046
:1040200009480A49884208B505D0094A824202D0A7
:10403000121A02F07BFA0748074A0021121A02F00E
:1040400080FA014808BD00BF4CE3032060690D0001
:10405000B4E30320B4E30320F0E7032070B501F0DC
:10406000E5FA074C074BE41AA40800251E46A542B2
:1040700004D056F8253098470135F8E770BD00BFE9
:1040800060690D0020690D0000F016B808B500F059
:104090002FF8BDE8084001F097BA00F0EDBB00F042
:1040A000F3BB00F0F1BB0078B0FA80F04009704734
:1040B0000123037070470000014800F010BA00BFF0
:1040C000B8E3032038B5046805467CB16368013B5A
:1040D00063605BB9236820469B689847A368013BEF
:1040E000A3601BB923682046DB689847284638BD83
:1040F00010B52DED028B224C88B0204600F0A8F8B8
:104100002046B0EE408A00F05DF8FDEEC87A1D4C06
:1041100017EE901A05230A2204A801EBC10191FBB6
:10412000F3F1203101F07EFB2378049A16498DF8D3
:10413000003002A83C2301F0A7F803A8FFF7C2FF54
:1041400004A801F017FB0A221D2104A801F06AFB54
:104150002378049A0D498DF8003002A83C2301F021
:1041600093F803A8FFF7AEFF04A801F003FB42F2A7
:10417000107001F089FA08B0BDEC028B10BD00BFD1
:10418000B8E30320C4E3032000660D000C660D00B5
:1041900008B5054B00221A7000F0BAFA0348BDE8D2
:1041A000084000F009B800BFC4E30320B8E30320CF
:1041B0000368C9B29B68184740220272002242601D
:1041C0000260704710B5044601F0F4FB94F9081042
:1041D00000F06EFD01F0EEFB0368F5219B68984747
:1041E00001F0E8FB002100F066FD192001F04CFA17
:1041F00001F0E0FB94F90810032200F050FD01F0FB
:10420000D9FB03685B69984784B201F0D3FB03686C
:104210005B69984740EA042004B201F0CBFB0368D5
:104220005B699847A3B207EE903A9FED067AF8EEE5
:10423000677AB9EE080A67EE877A9FED037AA7EEF0
:10424000870A10BD0000FA4200008037000000001D
:1042500010B5044601F0AEFB94F9081000F028FDFB
:1042600001F0A8FB0368F3219B68984701F0A2FBCB
:10427000002100F020FD192001F006FA01F09AFB60
:10428000032294F9081000F00AFD01F093FB036883
:104290005B69984784B201F08DFB03685B699847BE
:1042A00040EA042004B201F085FB03685B6998478B
:1042B000A0B207EE900AF8EE677A17EE900A01F0C6
:1042C00071FE10A3D3E9002301F0C0FE02F0D0F884
:1042D000DFED0B7A07EE100A67EE277A17EE900AE9
:1042E00001F060FE04A3D3E9002301F0FBFC02F01F
:1042F000BFF800EE100A10BDCDCCCCCCCC6C474042
:1043000000008037D7A3703D0AF7654010B504461A
:1043100001F050FB94F9081000F0CAFC01F04AFBD0
:104320000368FE219B68984701F044FB00F0C7FC3E
:104330003220BDE8104001F0A7B910B5044601F0E5
:1043400039FB94F9081000F0B3FC01F033FB0021B5
:10435000FFF72EFF01F02EFB0F21FFF729FF01F0E1
:1043600029FB00F0ACFC01F025FB082294F90810B1
:1043700000F095FC01F01EFB03685B699847206024
:1043800001F018FB03685B69984723681B022360F0
:1043900001F010FB03685B699847236818432060AD
:1043A00001F008FB03685B69984723681B022360E0
:1043B00001F000FB03685B6998472368184320609D
:1043C00001F0F8FA03685B69984723681B022360D1
:1043D00001F0F0FA03685B6998472368184320608E
:1043E00001F0E8FA03685B69984701F0E3FA94F991
:1043F000081000F05DFC01F0DDFA0021FFF7D8FEA7
:1044000001F0D8FAC921FFF7D3FE01F0D3FA00F08A
:1044100056FC01F0CFFA94F90810082200F03FFC96
:1044200001F0C8FA03685B699847606001F0C2FA5E
:1044300003685B69984763681B02636001F0BAFA1E
:1044400003685B69984763681843606001F0B2FADB
:1044500003685B69984763681B02636001F0AAFA0E
:1044600003685B69984763681843606001F0A2FACB
:1044700003685B69984763681B02636001F09AFAFE
:1044800003685B69984763681843606001F092FABB
:104490000368BDE810405B69184738B504460D460F
:1044A00001F088FA94F9081000F002FC01F082FA99
:1044B000036829469B68984701F07CFA002100F0C8
:1044C000FAFB01F077FA012294F9081000F0E7FBFB
:1044D00001F070FA03685B699847C0B238BD10B547
:1044E000044601F067FA00F0CBFB2046FFF70EFF11
:1044F000E7212046FFF7D1FF3A2804D12046FFF7F5
:104500001CFF012010BD002010BD00F001B900000B
:1045100008B5024B1B681B68019308BD4C020300E1
:1045200008B5024B1B681B69019308BD4C020300D0
:1045300008B5024B1B685B69019308BD4C02030080
:1045400008B5024B1B689B69019308BD4C02030030
:1045500008B5024B1B68DB69019308BD4C020300E0
:1045600008B5024B1B681B6A019308BD4C0203008F
:1045700008B5024B1B68DB68019308BD28020300E5
:1045800008B5024B1B685B69019308BD2802030054
:1045900008B5024B1B689B69019308BD2802030004
:1045A00008B5024B1B68DB69019308BD28020300B4
:1045B00008B5024B1B681B6A019308BD2802030063
:1045C00008B5024B1B685B6A019308BD2802030013
:1045D00008B5024B1B689B6A019308BD28020300C3
:1045E00008B5024B1B68DB6A019308BD2802030073
:1045F00008B5024B1B681B6B019308BD2802030022
:1046000008B5024B1B681B6C019308BD2802030010
:1046100008B5024B1B681B68019308BD3C020300F0
:1046200008B5024B1B68DB68019308BD3C02030020
:1046300008B5024B1B681B69019308BD3C020300CF
:1046400008B5024B1B685B69019308BD3C0203007F
:1046500008B5024B1B689B69019308BD3C0203002F
:1046600008B5024B1B68DB69019308BD3C020300DF
:1046700008B5024B1B689B6A019308BD3C0203000E
:1046800008B5024B1B685B69019308BD6402030017
:1046900008B5024B1B689B68019308BD48020300E4
:1046A00008B5024B1B681B69019308BD4802030053
:1046B00008B5024B1B685B69019308BD4802030003
:1046C00008B5024B1B681B6B019308BD4802030031
:1046D00008B5024B1B685B6C019308BD48020300E0
:1046E00008B5024B1B685B68019308BD1802030004
:1046F00008B5024B1B685B69019308BD18020300F3
:1047000008B5024B1B68DB69019308BD300203004A
:1047100008B5024B1B681B68019308BD2C020300FF
:1047200008B5024B1B689B68019308BD6802030033
:1047300008B5024B1B68DB68019308BD68020300E3
:1047400008B5024B1B685B69019308BD4402030076
:1047500008B5024B1B681B6A019308BD44020300A5
:1047600008B5024B1B68DB6B019308BD44020300D4
:1047700008B5024B1B685B68019308BD400203004B
:1047800008B5024B1B689B68019308BD40020300FB
:1047900008B5024B1B68DB68019308BD40020300AB
:1047A00008B5024B1B681B69019308BD400203005A
:1047B00008B5024B1B685B69019308BD400203000A
:1047C00008B5024B1B689B69019308BD40020300BA
:1047D00008B5024B1B68DB69019308BD400203006A
:1047E00008B5024B1B681B6A019308BD4002030019
:1047F00008B5024B1B681B6B019308BD4002030008
:1048000008B5024B1B685B6B019308BD40020300B7
:1048100008B5024B1B685B68019308BD20020300CA
:1048200008B5024B1B685B69019308BD20020300B9
:1048300008B5024B1B68DB6C019308BD2002030026
:1048400008B5024B1B685B6D019308BD2002030095
:1048500008B5034B1B68D3F88830019308BD0000EE
:104860002002030008B5034B1B68D3F89430019372
:1048700008BD00002002030008B5024B1B681B683E
:10488000019308BD1C02030008B5024B1B685B685E
:10489000019308BD1C02030008B5024B1B689B680E
:1048A000019308BD1C02030008B5024B1B68DB6ABC
:1048B000019308BD1C02030008B5024B1B681B6B6B
:1048C000019308BD1C02030010B58368044613B1B0
:1048D000032201469847204610BD00231A4640682F
:1048E000FFF746BF002202214068FFF751BF0022B8
:1048F00011464068FFF744BF002211464068FFF7A9
:104900004FBF00231A4619464068FFF751BF0023E6
:104910001A4619464068FFF753BF002281F0010193
:104920004068FFF755BF00224068FFF761BF0022D3
:1049300011464068FFF764BF002211464068FFF748
:104940004FBF2DE9F043002495B016460D460746AB
:1049500000F010FB214620220CA8009401F0F1FD8C
:1049600040230C9321466B460CAA3046FFF7E0FE2D
:104970000446002844D1024601216868FFF710FF71
:104980000221804622466868FFF70AFF009E8146A2
:104990002146002E34D0002932D17368022B02D078
:1049A0000A2B09D02AE0B8F1000F27D071693846E8
:1049B000043100F00CFB20E0B9F1000F1ED0746947
:1049C000112201A801F0BDFD06238DF8143001ADC0
:1049D00004F108031834186859682A4603C20833DA
:1049E000A3421546F7D101A906A807AD00F0D0FAF9
:1049F0000FCD3C1D0FC42B6823700121F669C8E759
:104A00000098FFF78DFE384615B0BDE8F083000032
:104A1000024B034A1A6000225A607047C8E3032021
:104A200020660D00002211464068FFF7D9BE002223
:104A300011464068FFF7E4BE00224068FFF7D8BE89
:104A4000002281F001014068FFF7C2BE00231A4630
:104A500001214068FFF7B4BE00231A46194640689A
:104A6000FFF7A6BE002211464068FFF799BE00225C
:104A700011464068FFF784BE002202214068FFF71C
:104A800087BE00231A464068FFF772BE38B5054658
:104A900088B104684CB1A3681BB1032221462046AB
:104AA00098471021204600F0CCFF28461421BDE88D
:104AB000384000F0C6BF38BD10B103685B681847C6
:104AC000704710B503680446BBB15868FFF7E0FDB6
:104AD00078B923685A7C12B95868FFF7E1FD23685A
:104AE0005868FFF7E5FD20680023236028B1FFF731
:104AF000CDFF206808B1FFF7C9FF204610BD0000B8
:104B000038B50C4B03600446D0F8CC0108B1FFF770
:104B1000C8FAD4F8C45135B12846FFF7D2FF0421B2
:104B2000284600F08EFFA06808B1FFF7C5FF2046B9
:104B300038BD00BF54660D0038B50E4C0E4B2360D7
:104B40000025022304F5E4706360A560C4F8C45135
:104B5000C4F8C851FFF7BCFD084BC4F8CC5184F829
:104B6000D05123602046064A0649BDE8384000F08F
:104B700063BF00BFD0E3032020660D0054660D0024
:104B8000B4E30320014B0D00002211464068FFF7FB
:104B900007BE002211464068FFF722BE00221146E0
:104BA0004068FFF72DBE00224068FFF721BE0022BB
:104BB00081F001014068FFF70BBE00231A46194639
:104BC0004068FFF7FDBD00231A4619464068FFF70D
:104BD000EFBD002211464068FFF7D2BD002202213E
:104BE0004068FFF7D5BD00231A464068FFF7C0BDF7
:104BF000024B04225A60024A1A607047A4E503205F
:104C000088660D007047F8B5064615460C468F18A5
:104C1000BC4206D0336814F8011B9B6830469847A5
:104C2000F6E72846F8BD0022007CFFF7C1BC002152
:104C3000007CFFF7C5BC0021007CFFF7C9BC002148
:104C4000007CFFF7CDBC0021007CFFF7D1BC10B584
:104C50001421044600F0F5FE204610BD10B50446B0
:104C60004FF47A730846A3600021044B20746160FE
:104C70002360FFF7C5FC204610BD00BFBC660D00D9
:104C800000231A461946007CFFF772BC13B50024B6
:104C9000007C0094FFF774FCC0B202B010BD012389
:104CA000D2B2C9B2FFF7F2BF0022007CFFF770BC9E
:104CB000C9B2FFF7F9BF0022007CFFF771BC0121E8
:104CC000FFF7F9BF10B5836804460BB900F0BBFECF
:104CD000C3689847A3681BB1032221462046984722
:104CE00020461021BDE8104000F0ABBE7047417473
:104CF000704708B5007CFFF7BBFC20EAE07008BDF8
:104D000008B5007CFFF794FC20EAE07008BD08B508
:104D1000007CFFF79DFC30EA200028BF4FF0FF30F9
:104D200008BD08B5007CFFF78BFC30EA200028BFE7
:104D30004FF0FF3008BD007CFFF792BC10B5142186
:104D4000044600F07EFE204610BD70B5457C04464A
:104D50000E4625B9007CFFF78BFC002805DD3146A7
:104D6000207CBDE87040FFF75BBC284670BD0000AA
:104D700010B5044608461146002262604FF47A726C
:104D8000A260054A22600122207462741A46FFF76D
:104D90003FFC204610BD00BFE4660D0038B50C4D49
:104DA000296811F0010411D12846FFF77CF968B198
:104DB000084A094B09482146FFF7DAFF2846FFF762
:104DC00077F9074A0749054800F036FE034838BD21
:104DD00044E6032048E60320C0E50320ACE50320B9
:104DE000B4E30320ED4C0D000B68036013B15A6867
:104DF00001325A60704741747047704708B500210E
:104E0000007CFFF79DFB30EA200028BF4FF0FF3009
:104E100008BD08B50121007CFFF792FB30EA2000B5
:104E200028BF4FF0FF3008BD08B5007CFFF780FBBE
:104E300020EAE07008BD08B5007CFFF771FB20EAAE
:104E4000E07008BD007CFFF78BBB10B51421044651
:104E500000F0F7FD204610BD38B50446007C0D4635
:104E6000FFF766FB002801DC607C28B12946207C26
:104E7000FFF76EFB20EAE07038BD000010B5044675
:104E8000002363604FF47A73A360054B2360012312
:104E90000846217463741146FFF73AFB204610BDA3
:104EA00014670D0010B514220446002101F049FBDF
:104EB000204610BD30B50E4D87B001A8FFF7F2FFB8
:104EC000296811F0010410D12846FFF7ECF860B111
:104ED00001AA21460748FFF7D1FF2846FFF7E8F867
:104EE000054A0649034800F0A7FD024807B030BD57
:104EF000CCE60320D0E60320B4E30320FB4D0D00F5
:104F0000704710B51821044600F09BFD204610BDE7
:104F1000F0B5037D062B8DB00E4600F104074FF06F
:104F2000000402D000F1080518E00CAD394605F880
:104F3000304D2F232A460A20FFF7A2FB284601F016
:104F40004CFB33680246DB682946304698470FE041
:104F500024B12E21304600F0D3FB044415F8011D86
:104F60000A22304600F0FCFBBD420444F0D120464A
:104F70000DB0F0BD10B5054B0446112240F8043BBE
:104F8000002101F0DEFA204610BD00BF44670D008D
:104F90000346074A10B543F8042B01F1100251F8FB
:104FA000044B43F8044B9142F9D10A781A7010BDB2
:104FB00044670D0010B59DF8084044EA032343EA16
:104FC000024242EA016104234160037510BD37B516
:104FD0000D788B784A78C97800912946FFF7EAFF67
:104FE00003B030BD70470020704710B51021044653
:104FF00000F027FD204610BD08B508B1FFF7F5FF0A
:1050000008BD0022026010B54FF69C728280B1F993
:10501000044084808A8002680C6804600A6010BDC5
:1050200010B504460068FFF72FFC204610BD38B5C8
:10503000C468F4B12378022B03D104F10C00FFF70C
:10504000EFFF656835B12846FFF73EFC1021284682
:1050500000F0F7FCA56835B12846FFF735FC1021B4
:10506000284600F0EEFC20461421BDE8384000F050
:10507000E8BC38BD13B5044691E8050000234B6039
:105080000B602060626001A801930093FFF71AF89B
:10509000204602B010BDF7B50C4602AD54F8043BF3
:1050A00045F8083D06460F4601A82146FFF79CFE3D
:1050B00029463046FFF7DEFF01A8FFF703F8204638
:1050C000FFF700F83846082100F0BBFC304603B07B
:1050D000F0BD13B50B46044603C88DE8030093E802
:1050E000030084E803009DE8030083E8030002B0A6
:1050F00010BD000038B500230446036010200D46A3
:10510000FEF7CBFF28B1012343608360024B0360AD
:10511000C5602060204638BD58670D00826810B514
:105120000AB900F090FCC368BDE81040184708B504
:10513000006800F11001FFF7F1FF08BD826810B5AB
:105140000AB900F080FCC368BDE81040184708B5F4
:10515000006800F11001FFF7F1FF08BD38B500232A
:1051600083608B6804460D462BB102229847EB689A
:10517000E360AB68A360204638BD0000F0B589B09D
:1051800004686846FFF73DFF00238DF808304FF0B4
:105190000202D4E84F3F002B03D1C4E8412F00297D
:1051A000F7D102D08DF8083063E014F10C0503D07C
:1051B00069462846FFF725FFBFF35F8F0123637021
:1051C000002004F10803BFF35F8F53E8006F43E84A
:1051D0000002002AF9D1BFF35F8F002E49D0FFF7FC
:1051E00027FB20B129463046FFF798FF3AE03146C9
:1051F00002A8FFF7B3FFE068B4F9105008B101F05E
:10520000D1F906901020ADF81C50FEF746FF054678
:10521000E8B1002787601820FEF73FFF044688B1F9
:105220000146876002A8FFF754FF049BA268A360B1
:10523000059B049206A9E268E36004F11000059260
:10524000FFF7DFFE0D4BEB600D4B2C60AB6006A84B
:10525000FFF7E6FE02A8FFF737FB002229460948C0
:10526000FFF7EEFA3046FFF72FFB1021304600F033
:10527000E8FB6846FFF7D4FE09B0F0BD2F510D00E2
:10528000A5530D00C54C0D002DE9F04F8BB006461F
:105290000F46904699469DF850A0FFF751FA07AD8A
:1052A000834630BB4FF62E73059005A92846ADF80E
:1052B0001830FFF7A6FE1420FEF7EFFE044658B1A3
:1052C0000223037001234370C0F804B0C0F808B093
:1052D00029460C30FFF795FE3046214640F8044B36
:1052E000FFF708FF2846FFF79BFE05A8FFF798FE8B
:1052F00052E000240C2314206C60AC600793FEF78E
:10530000CCFE014618B1047044704460846004A867
:105310000391FFF7EFFE224B08930820FEF7BDFE36
:10532000044628B1039B40F8043B04A9FFF75CFD49
:1053300000955FFA8AF34A46414638460994FFF7DA
:1053400007FA20B9039B5B7803F0FF0283B1039B4C
:10535000059304A906A8FFF747FD05A93046FFF706
:1053600089FE06A8FEF7AEFE04A8FEF7ABFE13E02A
:105370004FF69C7305A903A80592ADF81830FFF706
:10538000FDFE05A8FFF74CFE05A80999FFF783FE6F
:1053900006A8FEF797FEDAE730460BB0BDE8F08FBF
:1053A00015550D00022AF8B5044606D0032A17D079
:1053B000012A22D10B6803601FE018200E68FEF757
:1053C0006CFE054650B13146FFF7C8FE3069B6F9AC
:1053D000147008B101F0E6F82861AF8225600CE096
:1053E000046854B104F11000FFF71AFE2046FFF7DD
:1053F0006BFA1821204600F024FB0020F8BD38B5D8
:10540000002383608B6804460D462BB10222984727
:10541000EB68E360AB68A360204638BD022A70B534
:10542000044606D0032A11D0012A18D10B68036064
:1054300015E014200E68FEF730FE054620B1314617
:10544000FFF7DDFF337C2B74256008E0046834B17E
:105450002046FFF739FA1421204600F0F2FA002026
:1054600070BD0000F0B5002387B00C46BFF35F8F1E
:1054700050E8006F40E80032002AF9D1BFF35F8F97
:10548000002E3FD01846FFF7D3F9074620B121463A
:105490003046FFF753FE2EE0314601A8FFF7AFFF7D
:1054A00023788DF814301020FEF7F7FD0546D0B1B3
:1054B00087601420FEF7F1FD044678B1876001464D
:1054C00001A8FFF706FE039BA268A360049B03925A
:1054D000E268E3609DF81430049223740A4BEB6099
:1054E0000A4B2C60AB6001A8FFF7EEF900222946B9
:1054F0000748FFF7A5F93046FFF7E6F910213046D7
:1055000000F09FFA07B0F0BD4F510D001D540D0083
:10551000C54C0D0030B585B004460D4668461146B1
:10552000FFF7B9FD7CB124B228460DB101F03AF87D
:10553000029002A96846ADF80C40FFF71FFE02A8D2
:10554000FFF76EFD1DE000988DF808404FF0010256
:10555000D0E84F3FA34203D1C0E8412F0029F7D143
:1055600002D08DF808300CE010F10C014FF001036F
:1055700018BF0373BFF35F8F043000F8033CFFF7DD
:1055800071FF01A8FEF79EFD05B030BD08B50C4BBC
:1055900033B1FFF78FFC03681B699847002809DCCB
:1055A000084B63B1FFF7FAFB03681B6998470028B3
:1055B00003DC08BDAFF30080F2E7AFF3008008BD65
:1055C000000000000000000008B5FFF7DFFFFFF754
:1055D0008FF8014B186008BD2CE7032007B50023A6
:1055E00000931A466FF07701FFF73CF903B05DF8BE
:1055F00004FB000007B543880A2B08D0502B09D1C3
:10560000094B1B683BB103B05DF804EB1847FFF78B
:10561000E5FF06E0002300931A466FF07701FFF7DD
:1056200021F903B05DF804FBE4E6032010B5FFF7B1
:1056300057F8044600F08EFF074B13B12046AFF336
:10564000008000210448FFF78BF800210348BDE8E3
:105650001040FFF7FDB800BF00000000F5550D0039
:1056600010B50446FFF730F9204610BD0348044A40
:1056700004490023836000F0DFB900BFE8E603209F
:10568000B4E3032061560D000021FFF7C9B8000004
:10569000024B1A68024B1A60704700BF4CE30320AC
:1056A000F8E60320014B024A1A607047FCE603202B
:1056B00008680D00F8B506460D468F180024BD4257
:1056C0000CD0336815F8011B9B68304698470028BA
:1056D00001DB0444F3E7002C08BF04462046F8BD74
:1056E00070B505460C46084649B100F076FF2B68B8
:1056F000024621462846DB68BDE87040184770BD69
:1057000003689B68184730B58BB00B4600218DF8B5
:105710002410012A98BF0A220DF12304B3FBF2F5ED
:1057200005FB123303F0FF03092B94BF30333733EB
:10573000DBB2214604F801392B46002DEED1FFF7EC
:10574000CFFF0BB030BD10B42AB903685DF8044B2D
:105750009B68C9B21847D2B25DF8044BFFF7D3BFBC
:10576000FFF7F1BF024800230360FEF7B1BF00BF9F
:1057700000E7032010B504460068FFF785F82046CF
:1057800010BD10B50446006808B1FFF77DF800238E
:105790002360A360636010BD38B504460D46006801
:1057A0000131FFF779F810B184E82100012038BDFC
:1057B00010B50368044613B143688B4207D22046F4
:1057C000FFF7EAFF20B1A3680BB92268137001202C
:1057D00010BD70B50E46114604461546FFF7E8FFAA
:1057E00018B92046FFF7CDFF09E02A463146A560EB
:1057F000206800F09BFE2268A3680021D154204657
:1058000070BD38B505460C4641B1084600F0E5FECE
:10581000214602462846FFF7DCFF01E0FFF7B1FF13
:10582000284638BD10B5044600238AB02360636063
:10583000A3602373084601A900F040F801A920469F
:10584000FFF7DFFF20460AB010BD10B5044600F098
:10585000C4FE013823182046984206D202781978EF
:1058600000F8011B03F80129F6E710BD70B50C46DE
:10587000911E222920D82546294610B923443022DA
:105880000EE0B0FBF2F602FB1600C1B205F8011BF8
:10589000092894BF3031573105F8011C3046EBE739
:1058A000994202D201F8012BFAE7002320460B703F
:1058B000FFF7CBFF204670BD002070BD38B5031E3A
:1058C0000C4615460BDAB3F1004F4FF02D0214BF12
:1058D0005842184601230A702A46194400E0012361
:1058E000FFF7C4FF204638BD044B00204FF6FF727F
:1058F000187058809A80FEF78BBF00BF04E7032022
:10590000704710B51021044600F09BF8204610BDEA
:1059100070B5084B0360044600250E4640F80C5F46
:10592000FEF7CEFE30462671FEF7EAFEA560204661
:1059300070BD00BF80680D00002211464068FEF770
:105940004FBF002211464068FEF75ABF0022406850
:10595000FEF74EBF002281F001014068FEF738BF1C
:1059600000231A4619464068FEF72ABF00231A464C
:1059700019464068FEF71CBF002211464068FEF73A
:105980000FBF002211464068FEF7FABE0022022136
:105990004068FEF7FDBE00231A464068FEF7E8BEE9
:1059A000024B03225A60024A1A6070470CE7032038
:1059B00090680D0038B50B4D296811F001040FD126
:1059C0002846FEF770FB58B121460748FFF746F915
:1059D0002846FEF76DFB054A0549034800F02CF800
:1059E000014838BD14E7032018E70320B4E303207F
:1059F000054C0D0070B50C4C0C4E0D4D0021204691
:105A0000FFF786FF20460B4C3246294600F014F87B
:105A100001212046FFF77CFF324629462046BDE89B
:105A2000704000F009B800BF30E70320B4E3032062
:105A300001590D0040E703200B460146184600F0CF
:105A400067BDFEF72CBB08B5FEF72EFF184B1A6892
:105A5000D1075CBF01221A60164B1A68D2075CBFDF
:105A600001221A60144B1A68D0075CBF01221A6029
:105A7000124B1A68D1075CBF01221A60104B1A68DA
:105A8000D2075CBF01221A600E4B1A68D0075CBFB8
:105A900001221A600C4B1A68D1075CBF01221A6000
:105AA0000A4B1A68D2075CBF01221A60704700BF18
:105AB0006CE7032068E7032064E7032060E7032026
:105AC0005CE7032058E7032054E7032050E7032056
:105AD000244B1A68D0075CBF01221A60224B1A6857
:105AE000D1075CBF01221A60204B1A68D2075CBF45
:105AF00001221A601E4B1A68D0075CBF01221A608F
:105B00001C4B1A68D1075CBF01221A601A4B1A6835
:105B1000D2075CBF01221A60184B1A68D0075CBF1D
:105B200001221A60164B1A68D1075CBF01221A6065
:105B3000144B1A68D2075CBF01221A60124B1A6814
:105B4000D0075CBF01221A60104B1A68D1075CBFF6
:105B500001221A600E4B1A68D2075CBF01221A603C
:105B6000704700BF9CE7032098E7032094E70320D9
:105B700090E703208CE7032088E7032084E70320D5
:105B800080E703207CE7032078E7032074E7032005
:105B900070E70320244B1A68D0075CBF01221A600B
:105BA000224B1A68D1075CBF01221A60204B1A6889
:105BB000D2075CBF01221A601E4B1A68D0075CBF77
:105BC00001221A601C4B1A68D1075CBF01221A60BF
:105BD0001A4B1A68D2075CBF01221A60184B1A6868
:105BE000D0075CBF01221A60164B1A68D1075CBF50
:105BF00001221A60144B1A68D2075CBF01221A6096
:105C0000124B1A68D0075CBF01221A60104B1A6849
:105C1000D1075CBF01221A600E4B1A68D2075CBF25
:105C200001221A60704700BFCCE70320C8E70320B9
:105C3000C4E70320C0E70320BCE70320B8E7032044
:105C4000B4E70320B0E70320ACE70320A8E7032074
:105C5000A4E70320A0E70320184B1A68D1075CBF14
:105C600001221A60164B1A68D2075CBF01221A6023
:105C7000144B1A68D0075CBF01221A60124B1A68D5
:105C8000D1075CBF01221A60104B1A68D2075CBFB3
:105C900001221A600E4B1A68D0075CBF01221A60FD
:105CA0000C4B1A68D1075CBF01221A600A4B1A68B4
:105CB000D2075CBF01221A60704700BFECE70320E7
:105CC000E8E70320E4E70320E0E70320DCE7032024
:105CD000D8E70320D4E70320D0E7032081F0004178
:105CE00002E000BF83F0004330B54FEA41044FEAC1
:105CF000430594EA050F08BF90EA020F1FBF54EA5C
:105D0000000C55EA020C7FEA645C7FEA655C00F0F7
:105D1000E2804FEA5454D4EB5555B8BF6D420CDDC8
:105D20002C4480EA020281EA030382EA000083EA4B
:105D3000010180EA020281EA0303362D88BF30BDEB
:105D400011F0004F4FEA01314FF4801C4CEA113141
:105D500002D0404261EB410113F0004F4FEA0333A0
:105D60004CEA133302D0524263EB430394EA050F2B
:105D700000F0A780A4F10104D5F1200E0DDB02FA9A
:105D80000EFC22FA05F2801841F1000103FA0EF22E
:105D9000801843FA05F359410EE0A5F120050EF1F4
:105DA000200E012A03FA0EFC28BF4CF0020C43FA25
:105DB00005F3C01851EBE37101F0004507D54FF032
:105DC000000EDCF1000C7EEB00006EEB0101B1F582
:105DD000801F1BD3B1F5001F0CD349085FEA3000C8
:105DE0004FEA3C0C04F101044FEA445212F5800FD3
:105DF00080F09A80BCF1004F08BF5FEA500C50F170
:105E0000000041EB045141EA050130BD5FEA4C0C52
:105E1000404141EB010111F4801FA4F10104E9D1DB
:105E200091F0000F04BF01460020B1FA81F308BFD2
:105E30002033A3F10B03B3F120020CDA0C3208DD9E
:105E400002F1140CC2F10C0201FA0CF021FA02F179
:105E50000CE002F11402D8BFC2F1200C01FA02F1E9
:105E600020FA0CFCDCBF41EA0C019040E41AA2BF0E
:105E700001EB0451294330BD6FEA04041F3C1CDAD6
:105E80000C340EDC04F11404C4F1200220FA04F0F6
:105E900001FA02F340EA030021FA04F345EA0301A0
:105EA00030BDC4F10C04C4F1200220FA02F001FA62
:105EB00004F340EA0300294630BD21FA04F02946E4
:105EC00030BD94F0000F83F4801306BF81F480117D
:105ED0000134013D4EE77FEA645C18BF7FEA655CF0
:105EE00029D094EA050F08BF90EA020F05D054EAC2
:105EF000000C04BF1946104630BD91EA030F1EBFC7
:105F00000021002030BD5FEA545C05D140004941CA
:105F100028BF41F0004130BD14F580043CBF01F5BD
:105F2000801130BD01F0004545F0FE4141F47001A3
:105F30004FF0000030BD7FEA645C1ABF194610467E
:105F40007FEA655C1CBF0B46024650EA013406BF7F
:105F500052EA033591EA030F41F4002130BD00BF3E
:105F600090F0000F04BF0021704730B54FF48064FB
:105F700004F132044FF000054FF0000150E700BF7C
:105F800090F0000F04BF0021704730B54FF48064DB
:105F900004F1320410F0004548BF40424FF00001C8
:105FA0003EE700BF42004FEAE2014FEA31014FEA0B
:105FB00002701FBF12F07F4393F07F4F81F060515A
:105FC000704792F0000F14BF93F07F4F704730B5C9
:105FD0004FF4607401F0004521F0004120E700BF5C
:105FE00050EA010208BF704730B54FF000050AE0E3
:105FF00050EA010208BF704730B511F0004502D5E4
:10600000404261EB41014FF4806404F132045FEAE5
:10601000915C3FF4DCAE4FF003025FEADC0C18BF8A
:1060200003325FEADC0C18BF033202EBDC02C2F180
:10603000200300FA03FC20FA02F001FA03FE40EA12
:106040000E0021FA02F11444C1E600BF70B54FF012
:10605000FF0C4CF4E06C1CEA11541DBF1CEA1355F4
:1060600094EA0C0F95EA0C0F00F0DEF82C4481EA5C
:10607000030621EA4C5123EA4C5350EA013518BF7C
:1060800052EA033541F4801143F4801338D0A0FB69
:1060900002CE4FF00005E1FB02E506F00042E0FB16
:1060A00003E54FF00006E1FB03569CF0000F18BF1C
:1060B0004EF0010EA4F1FF04B6F5007F64F54074C4
:1060C00004D25FEA4E0E6D4146EB060642EAC62157
:1060D00041EA55514FEAC52040EA5E504FEACE2EC4
:1060E000B4F1FD0C88BFBCF5E06F1ED8BEF1004FC7
:1060F00008BF5FEA500E50F1000041EB045170BD43
:1061000006F0004646EA010140EA020081EA030186
:10611000B4EB5C04C2BFD4EB0C0541EA045170BD82
:1061200041F480114FF0000E013C00F3AB8014F1FC
:10613000360FDEBF002001F0004170BDC4F1000445
:10614000203C35DA0C341BDC04F11404C4F12005C6
:1061500000FA05F320FA04F001FA05F240EA020021
:1061600001F0004221F0004110EBD37021FA04F657
:1061700042EB06015EEA430E08BF20EAD37070BD11
:10618000C4F10C04C4F1200500FA04F320FA05F070
:1061900001FA04F240EA020001F0004110EBD37072
:1061A00041F100015EEA430E08BF20EAD37070BDE2
:1061B000C4F1200500FA05F24EEA020E20FA04F3BB
:1061C00001FA05F243EA020321FA04F001F000416A
:1061D00021FA04F220EA020000EBD3705EEA430EDB
:1061E00008BF20EAD37070BD94F0000F0FD101F00A
:1061F0000046400041EB010111F4801F08BF013C43
:10620000F7D041EA060195F0000F18BF704703F080
:106210000046520043EB030313F4801F08BF013D07
:10622000F7D043EA0603704794EA0C0F0CEA1355C3
:1062300018BF95EA0C0F0CD050EA410618BF52EA7D
:106240004306D1D181EA030101F000414FF0000083
:1062500070BD50EA410606BF1046194652EA430691
:1062600019D094EA0C0F02D150EA013613D195EA05
:106270000C0F05D152EA03361CBF104619460AD14D
:1062800081EA030101F0004141F0FE4141F4700157
:106290004FF0000070BD41F0FE4141F4780170BD47
:1062A00070B54FF0FF0C4CF4E06C1CEA11541DBFAC
:1062B0001CEA135594EA0C0F95EA0C0F00F0A7F8AE
:1062C000A4EB050481EA030E52EA03354FEA0131DB
:1062D00000F088804FEA03334FF0805545EA1313EE
:1062E00043EA12634FEA022245EA111545EA1065B6
:1062F0004FEA00260EF000419D4208BF964244F14D
:10630000FD0404F5407402D25B084FEA3202B61A6B
:1063100065EB03055B084FEA32024FF480104FF43F
:10632000002CB6EB020E75EB030E22BFB61A7546B3
:1063300040EA0C005B084FEA3202B6EB020E75EB46
:10634000030E22BFB61A754640EA5C005B084FEAAE
:106350003202B6EB020E75EB030E22BFB61A75467B
:1063600040EA9C005B084FEA3202B6EB020E75EB86
:10637000030E22BFB61A754640EADC0055EA060E47
:1063800018D04FEA051545EA16754FEA06164FEA8A
:10639000C30343EA52734FEAC2025FEA1C1CC0D136
:1063A00011F4801F0BD141EA00014FF000004FF0C3
:1063B000004CB6E711F4801F04BF01430020B4F184
:1063C000FD0C88BFBCF5E06F3FF6AFAEB5EB030C3C
:1063D00004BFB6EB020C5FEA500C50F1000041EB39
:1063E000045170BD0EF0004E4EEA113114EB5C0406
:1063F000C2BFD4EB0C0541EA045170BD41F48011D9
:106400004FF0000E013C90E645EA060E8DE60CEAE0
:10641000135594EA0C0F08BF95EA0C0F3FF43BAFFD
:1064200094EA0C0F0AD150EA01347FF434AF95EAB4
:106430000C0F7FF425AF104619462CE795EA0C0F98
:1064400006D152EA03353FF4FDAE1046194622E765
:1064500050EA410618BF52EA43067FF4C5AE50EA3F
:1064600041047FF40DAF52EA43057FF4EBAE12E72F
:106470004FEA4102B2F1E04324BFB3F5001CDCF166
:10648000FE5C0DD901F0004C4FEAC0024CEA50709E
:10649000B2F1004F40EB830008BF20F001007047CD
:1064A00011F0804F21D113F13872BCBF01F00040D0
:1064B000704741F480114FEA5252C2F11802C2F102
:1064C000200C10FA0CF320FA02F018BF40F0010083
:1064D0004FEAC1234FEAD32303FA0CFC40EA0C0035
:1064E00023FA02F34FEA4303CCE77FEA625307D172
:1064F00050EA01331EBF4FF0FE4040F440007047A9
:1065000001F0004040F0FE4040F40000704700BF42
:1065100010B5054C13462CB10A4601460220AFF3D4
:10652000008010BD204610BD0000000010B5431EC5
:106530000A44914204D011F8014B03F8014FF8E7E7
:1065400010BD02440346934202D003F8011BFAE750
:106550007047000038B5124B1C68A36B0546D3B9D1
:106560001820FEF789F943F20E33A06303804AF640
:10657000CD33438041F2342383804EF26D63C38078
:106580004DF6EC630381052343810B2383810122B4
:106590000023C0E90423A36B00221D615A6138BDAA
:1065A000B0E30320024B0146186800F003B800BFB7
:1065B000B0E3032070B5064608460C4600F00DF81F
:1065C000451C29463046FEF777F9064618B12A469B
:1065D0002146FFF7ABFF304670BD034613F8012B91
:1065E000002AFBD1181A01387047000021400D0025
:1065F0005D400D0089400D008D400D000000000041
:1066000074656D70657261747572650068756D6929
:1066100064697479000000000000000000000000C0
:10662000DB480D00E5480D00EF480D00F9480D006E
:1066300003490D000F490D001B490D0027490D00AE
:106640002F490D0039490D0043490D00000000009D
:1066500000000000834A0D00794A0D006F4A0D00CA
:10666000654A0D00594A0D004D4A0D00414A0D0082
:10667000394A0D002F4A0D00254A0D0043490D00EF
:106680000000000000000000E74B0D00DD4B0D0096
:10669000D34B0D00894B0D00C74B0D00BB4B0D00BC
:1066A000AF4B0D00A74B0D009D4B0D00934B0D0004
:1066B00043490D000000000000000000054C0D00E3
:1066C0004F4C0D00274C0D00074C0D002F4C0D00BA
:1066D000374C0D003F4C0D00474C0D0000000000F2
:1066E00000000000ED4C0D003D4D0D004B4D0D0028
:1066F000B5560D00014D0D00234D0D000F4D0D0041
:10670000374D0D00EF4C0D00F34C0D000000000064
:1067100000000000FB4D0D004B4E0D00594E0D00CA
:10672000B5560D00374E0D00FD4D0D00134E0D00FA
:10673000454E0D00294E0D00F74D0D0000000000E4
:1067400000000000114F0D00014F0D00034F0D0020
:106750000000000000000000E54F0D00EB4F0D00B1
:106760002F500D00F94F0D00E74F0D005A00252B5B
:106770003033643A253032750025592D256D2D258D
:10678000645425483A254D3A2553257A00617363B0
:1067900074696D6500626175640053657269616C4E
:1067A0000053657269616C310074797065007061C5
:1067B00072616D00636D6400696400686E640073EB
:1067C00074726D0066696C74006C766C0061646450
:1067D00048616E646C65720072656D6F76654861C4
:1067E0006E646C657200656E756D48616E646C6593
:1067F0007273004A534F4E53747265616D4C6F67EC
:1068000048616E646C6572006170700025303130D3
:106810007520005D20002564002C200028293A20E6
:1068200000205B00636F6465203D200025690064E3
:10683000657461696C73203D20000D0A0066006C70
:106840006E00666E00636F64650064657461696CF8
:10685000006E6F6E6500747261636500696E666FCD
:10686000007761726E006572726F720070616E699E
:106870006300616C6C00000000000000000000007C
:1068800001590D0003590D00000000000000000038
:1068900097590D008D590D0083590D0079590D0040
:1068A0006D590D0061590D0055590D004D590D00E0
:1068B00043590D0039590D0043490D0000000000F7
:1068C00000000000000000000000000000000000C8
:1068D00000000000000000000000000000000000B8
:1068E00000000000000000000000000000000000A8
:1068F0000000000000000000000000000000000098
:106900000000000000000000000000000000000087
:106910000000000000000000000000004300000034
:1069200091410D000B450D00114A0D00394B0D0032
:10693000F14B0D006D560D0091560D00A5560D0042
:1069400065570D00E9580D00A1590D00F5590D00CE
:106950004D5A0D00D15A0D00955B0D00595C0D008C
:106960008D670D0000000000BC680D00DC680D00A4
:10697000FC680D00000000000000000000000000A6
:10698000000000001C690D00000000000000000075
:1069900000000000000000000000000000000000F7
:1069A00000000000000000000000000000000000E7
:1069B00000000000000000000000000000000000D7
:0869C0000000000050E3032079
:1069C800FFFFFFFF00000102030405060708090A8C
:1069D8000B0C0D0E0F101112131415161718191A87
:0869E8001B1C1D1E1F202800CE
:0469F000785634128F
:04000003D0004020C9
:00000001FF
