:02000002D0002C
:1040000000400D00B0770D00000006000C00050117
:0840100004017E050000000020
:0440180088710D009E
:1040200009480A49884208B505D0094A824202D0A7
:10403000121A02F089FC0748074A0021121A02F0FE
:104040008EFC014808BD00BFA4E20320D0760D001D
:104050005CE303205CE30320F0E7032070B501F08C
:1040600069FB074C074BE41AA40800251E46A5422D
:1040700004D056F8253098470135F8E770BD00BFE9
:10408000C8760D0088760D0000F016B808B500F06F
:1040900059F8BDE8084001F01BBB00F065BC00F01A
:1040A0006BBC00F069BC0078B0FA80F04009704742
:1040B000012303707047000008B500F07FFF4FF444
:1040C000165100F06FFF0248BDE8084000F047BA03
:1040D00060E3032070B501F0DAFB0E4C01F09CFBAD
:1040E0002378054626463BB9082805DD01F0DFFBAD
:1040F000012801D1207070BD33780BB1052D01DC92
:10410000002070BD01F0CAFB0128F9D1014B00204D
:10411000187070BD6DE3032038B5046805467CB1A6
:104120006368013B63605BB9236820469B689847DE
:10413000A368013BA3601BB923682046DB6898474E
:10414000284638BD10B52DED028B2B482B4C88B07E
:1041500000F0BEF82848B0EE408A00F073F8FDEE9B
:10416000C87A052317EE901A0A2201EBC10104A8B0
:1041700091FBF3F12031F0EE408A01F069FC2378E5
:10418000049A1F498DF8003002A83C2301F000F981
:1041900003A8FFF7C1FF04A801F002FCFDEEE87AD6
:1041A0000A2217EE901A04A801F052FC2378049A10
:1041B00014498DF8003002A83C2301F0E9F803A867
:1041C000FFF7AAFF04A801F0EBFB42F2107001F028
:1041D000DFFAFFF77FFF58B123788DF8003004A88D
:1041E0003C23094A094901F0D3F805A8FFF794FFD9
:1041F00008B0BDEC028B10BD60E303206CE303202C
:104200009C710D00A8710D00B1710D00CC710D00F5
:1042100008B5054B01221A7000F0D2FA0348BDE838
:10422000084000F009B800BF6CE3032060E30320FE
:104230000368C9B29B68184740220272002242609C
:104240000260704710B5044601F0CAFC94F90810EA
:1042500000F0AEFD01F0C4FC0368F5219B689847AF
:1042600001F0BEFC002100F0A6FD192001F090FA3B
:1042700001F0B6FC94F90810032200F090FD01F063
:10428000AFFC03685B69984784B201F0A9FC03683E
:104290005B69984740EA042004B201F0A1FC03687E
:1042A0005B699847A3B207EE903A9FED067AF8EE65
:1042B000677AB9EE080A67EE877A9FED037AA7EE70
:1042C000870A10BD0000FA4200008037000000009D
:1042D00010B5044601F084FC94F9081000F068FD64
:1042E00001F07EFC0368F3219B68984701F078FC9D
:1042F000002100F060FD192001F04AFA01F070FC85
:10430000032294F9081000F04AFD01F069FC0368EB
:104310005B69984784B201F063FC03685B69984766
:1043200040EA042004B201F05BFC03685B69984733
:10433000A0B207EE900AF8EE677A17EE900A01F045
:1043400047FF10A3D3E9002301F096FF02F0A6F97E
:10435000DFED0B7A07EE100A67EE277A17EE900A68
:1043600001F036FF04A3D3E9002301F0D1FD02F0F0
:1043700095F900EE100A10BDCDCCCCCCCC6C4740EA
:1043800000008037D7A3703D0AF7654010B504469A
:1043900001F026FC94F9081000F00AFD01F020FC61
:1043A0000368FE219B68984701F01AFC00F007FDA6
:1043B0003220BDE8104001F0EBB910B5044601F021
:1043C0000FFC94F9081000F0F3FC01F009FC002147
:1043D000FFF72EFF01F004FC0F21FFF729FF01F08A
:1043E000FFFB00F0ECFC01F0FBFB082294F9081045
:1043F00000F0D5FC01F0F4FB03685B69984720608E
:1044000001F0EEFB03685B69984723681B02236099
:1044100001F0E6FB03685B69984723681843206056
:1044200001F0DEFB03685B69984723681B02236089
:1044300001F0D6FB03685B69984723681843206046
:1044400001F0CEFB03685B69984723681B02236079
:1044500001F0C6FB03685B69984723681843206036
:1044600001F0BEFB03685B69984701F0B9FB94F962
:10447000081000F09DFC01F0B3FB0021FFF7D8FE0F
:1044800001F0AEFBC921FFF7D3FE01F0A9FB00F05C
:1044900096FC01F0A5FB94F90810082200F07FFCBF
:1044A00001F09EFB03685B699847606001F098FB30
:1044B00003685B69984763681B02636001F090FBC7
:1044C00003685B69984763681843606001F088FB84
:1044D00003685B69984763681B02636001F080FBB7
:1044E00003685B69984763681843606001F078FB74
:1044F00003685B69984763681B02636001F070FBA7
:1045000003685B69984763681843606001F068FB63
:104510000368BDE810405B69184738B504460D468E
:1045200001F05EFB94F9081000F042FC01F058FB2A
:10453000036829469B68984701F052FB002100F070
:104540003AFC01F04DFB012294F9081000F027FC21
:1045500001F046FB03685B699847C0B238BD10B5EF
:10456000044601F03DFB00F00BFC2046FFF70EFF78
:10457000E7212046FFF7D1FF3A2804D12046FFF774
:104580001CFF012010BD002010BD00F019B9000073
:1045900008B5024B1B681B68019308BD4C02030061
:1045A00008B5024B1B685B68019308BD4C02030011
:1045B00008B5024B1B681B69019308BD4C02030040
:1045C00008B5024B1B685B69019308BD4C020300F0
:1045D00008B5024B1B689B69019308BD4C020300A0
:1045E00008B5024B1B68DB69019308BD4C02030050
:1045F00008B5024B1B681B6A019308BD4C020300FF
:1046000008B5024B1B68DB68019308BD2802030054
:1046100008B5024B1B685B69019308BD28020300C3
:1046200008B5024B1B689B69019308BD2802030073
:1046300008B5024B1B68DB69019308BD2802030023
:1046400008B5024B1B681B6A019308BD28020300D2
:1046500008B5024B1B685B6A019308BD2802030082
:1046600008B5024B1B689B6A019308BD2802030032
:1046700008B5024B1B68DB6A019308BD28020300E2
:1046800008B5024B1B681B6B019308BD2802030091
:1046900008B5024B1B681B6C019308BD2802030080
:1046A00008B5024B1B681B68019308BD3C02030060
:1046B00008B5024B1B68DB68019308BD3C02030090
:1046C00008B5024B1B681B69019308BD3C0203003F
:1046D00008B5024B1B685B69019308BD3C020300EF
:1046E00008B5024B1B689B69019308BD3C0203009F
:1046F00008B5024B1B68DB69019308BD3C0203004F
:1047000008B5024B1B689B6A019308BD3C0203007D
:1047100008B5024B1B685B69019308BD6402030086
:1047200008B5024B1B689B68019308BD4802030053
:1047300008B5024B1B681B69019308BD48020300C2
:1047400008B5024B1B685B69019308BD4802030072
:1047500008B5024B1B681B6B019308BD48020300A0
:1047600008B5024B1B685B6C019308BD480203004F
:1047700008B5024B1B685B68019308BD1802030073
:1047800008B5024B1B685B69019308BD1802030062
:1047900008B5024B1B68DB69019308BD18020300D2
:1047A00008B5024B1B689B6D019308BD18020300FE
:1047B00008B5024B1B68DB69019308BD300203009A
:1047C00008B5024B1B681B68019308BD2C0203004F
:1047D00008B5024B1B689B68019308BD6802030083
:1047E00008B5024B1B68DB68019308BD6802030033
:1047F00008B5024B1B689B68019308BD4402030087
:1048000008B5024B1B685B69019308BD44020300B5
:1048100008B5024B1B681B6A019308BD44020300E4
:1048200008B5024B1B681B6B019308BD44020300D3
:1048300008B5024B1B68DB6B019308BD4402030003
:1048400008B5024B1B685B68019308BD400203007A
:1048500008B5024B1B689B68019308BD400203002A
:1048600008B5024B1B68DB68019308BD40020300DA
:1048700008B5024B1B681B69019308BD4002030089
:1048800008B5024B1B685B69019308BD4002030039
:1048900008B5024B1B689B69019308BD40020300E9
:1048A00008B5024B1B68DB69019308BD4002030099
:1048B00008B5024B1B681B6A019308BD4002030048
:1048C00008B5024B1B681B6B019308BD4002030037
:1048D00008B5024B1B685B6B019308BD40020300E7
:1048E00008B5024B1B681B68019308BD200203003A
:1048F00008B5024B1B685B68019308BD20020300EA
:1049000008B5024B1B685B69019308BD20020300D8
:1049100008B5024B1B68DB6C019308BD2002030045
:1049200008B5024B1B685B6D019308BD20020300B4
:1049300008B5024B1B689B6D019308BD2002030064
:1049400008B5034B1B68D3F88830019308BD0000FD
:104950002002030008B5034B1B68D3F89430019381
:1049600008BD00002002030008B5024B1B681B684D
:10497000019308BD1C02030008B5024B1B685B686D
:10498000019308BD1C02030008B5024B1B689B681D
:10499000019308BD1C02030008B5024B1B689B690C
:1049A000019308BD1C02030008B5024B1B68DB6ABB
:1049B000019308BD1C02030008B5024B1B681B6B6A
:1049C000019308BD1C02030010B58368044613B1AF
:1049D000032201469847204610BD00231A4640682E
:1049E000FFF72EBF002202214068FFF739BF0022E7
:1049F00011464068FFF72CBF002211464068FFF7C0
:104A000037BF00231A4619464068FFF739BF002315
:104A10001A4619464068FFF73BBF002281F00101AA
:104A20004068FFF73DBF00224068FFF749BF002202
:104A300011464068FFF74CBF002211464068FFF75F
:104A400037BF2DE9F043002495B016460D460746C2
:104A500000F014FB214620220CA8009401F07FFFF7
:104A600040230C9321466B460CAA3046FFF7B8FE54
:104A70000446002844D1024601216868FFF7F8FE89
:104A80000221804622466868FFF7F2FE009E8146BA
:104A90002146002E34D0002932D17368022B02D077
:104AA0000A2B09D02AE0B8F1000F27D071693846E7
:104AB000043100F010FB20E0B9F1000F1ED0746942
:104AC000112201A801F04BFF06238DF8143001AD2F
:104AD00004F108031834186859682A4603C20833D9
:104AE000A3421546F7D101A906A807AD00F0D4FAF4
:104AF0000FCD3C1D0FC42B6823700121F669C8E758
:104B00000098FFF765FE384615B0BDE8F083000059
:104B1000024B034A1A6000225A60704770E3032078
:104B2000EC710D00002211464068FFF7C1BE002263
:104B300011464068FFF7CCBE00224068FFF7C0BEB8
:104B4000002281F001014068FFF7AABE00231A4647
:104B500001214068FFF79CBE00231A4619464068B1
:104B6000FFF78EBE002211464068FFF781BE00228B
:104B700011464068FFF76CBE002202214068FFF733
:104B80006FBE00231A464068FFF75ABE38B5054687
:104B900088B104684CB1A3681BB1032221462046AA
:104BA00098471021204601F062F828461421BDE8FC
:104BB000384001F05CB838BD10B103685B68184735
:104BC000704710B503680446BBB15868FFF7A8FDED
:104BD00078B923685A7C12B95868FFF7A9FD236891
:104BE0005868FFF7ADFD20680023236028B1FFF768
:104BF000CDFF206808B1FFF7C9FF204610BD0000B7
:104C000038B50C4B03600446D0F8CC0108B1FFF76F
:104C100048FAD4F8C45135B12846FFF7D2FF042131
:104C2000284601F024F8A06808B1FFF7C5FF204628
:104C300038BD00BF20720D0038B50E4C0E4B2360FE
:104C40000025022304F5E4706360A560C4F8C45134
:104C5000C4F8C851FFF784FD084BC4F8CC5184F860
:104C6000D05123602046064A0649BDE8384000F08E
:104C7000F9BF00BF78E30320EC710D0020720D0036
:104C80005CE30320014C0D00002211464068FFF751
:104C9000EFBD002211464068FFF70ABE0022114610
:104CA0004068FFF715BE00224068FFF709BE0022EA
:104CB00081F001014068FFF7F3BD00231A46194651
:104CC0004068FFF7E5BD00231A4619464068FFF724
:104CD000D7BD002211464068FFF7BABD002202216D
:104CE0004068FFF7BDBD00231A464068FFF7A8BD26
:104CF000024B04225A60024A1A6070474CE50320B6
:104D000054720D007047F8B5064615460C468F18CC
:104D1000BC4206D0336814F8011B9B6830469847A4
:104D2000F6E72846F8BD0022007CFFF789BC002189
:104D3000007CFFF78DBC0021007CFFF791BC0021B7
:104D4000007CFFF795BC0021007CFFF799BC10B5F3
:104D50001421044600F08BFF204610BD10B5044618
:104D60004FF47A730846A3600021044B20746160FD
:104D70002360FFF78DFC204610BD00BF88720D0038
:104D800000231A461946007CFFF73ABC13B50024ED
:104D9000007C0094FFF73CFCC0B202B010BD0123C0
:104DA000D2B2C9B2FFF7F2BF0022007CFFF738BCD5
:104DB000C9B2FFF7F9BF0022007CFFF739BC01211F
:104DC000FFF7F9BF10B5836804460BB900F051FF37
:104DD000C3689847A3681BB1032221462046984721
:104DE00020461021BDE8104000F041BF70474174DB
:104DF000704708B5007CFFF783FC20EAE07008BD2F
:104E000008B5007CFFF75CFC20EAE07008BD08B53F
:104E1000007CFFF765FC30EA200028BF4FF0FF3030
:104E200008BD08B5007CFFF753FC30EA200028BF1E
:104E30004FF0FF3008BD007CFFF75ABC10B51421BD
:104E4000044600F014FF204610BD70B5457C0446B2
:104E50000E4625B9007CFFF753FC002805DD3146DE
:104E6000207CBDE87040FFF723BC284670BD0000E1
:104E700010B5044608461146002262604FF47A726B
:104E8000A260054A22600122207462741A46FFF76C
:104E900007FC204610BD00BFB0720D0038B50C4DA8
:104EA000296811F0010411D12846FFF7FCF868B118
:104EB000084A094B09482146FFF7DAFF2846FFF761
:104EC000F7F8074A0749054800F0CCFE034838BD0B
:104ED000ECE50320F0E5032068E5032054E503201A
:104EE0005CE30320ED4D0D000B68036013B15A68BD
:104EF00001325A60704741747047704708B500210D
:104F0000007CFFF765FB30EA200028BF4FF0FF3040
:104F100008BD08B50121007CFFF75AFB30EA2000EC
:104F200028BF4FF0FF3008BD08B5007CFFF748FBF5
:104F300020EAE07008BD08B5007CFFF739FB20EAE5
:104F4000E07008BD007CFFF753BB10B51421044688
:104F500000F08DFE204610BD38B50446007C0D469D
:104F6000FFF72EFB002801DC607C28B12946207C5D
:104F7000FFF736FB20EAE07038BD000010B50446AC
:104F8000002363604FF47A73A360054B2360012311
:104F90000846217463741146FFF7FAFA204610BDE3
:104FA000E0720D000022007CFFF7FABA10B514225F
:104FB0000446002101F0D3FC204610BD30B50E4D53
:104FC00087B001A8FFF7F2FF296811F0010410D1A2
:104FD0002846FFF768F860B101AA21460748FFF7A5
:104FE000CDFF2846FFF764F8054A0649034800F05C
:104FF00039FE024807B030BD74E6032078E603208E
:105000005CE30320FB4E0D00704710B518210446E9
:1050100000F02DFE204610BDF0B5037D062B8DB0AF
:105020000E4600F104074FF0000402D000F108051D
:1050300018E00CAD394605F8304D2F232A460A20DA
:10504000FFF766FB284601F0E8FC33680246DB68A0
:105050002946304698470FE024B12E21304600F013
:1050600065FC044415F8011D0A22304600F08EFC50
:10507000BD420444F0D120460DB0F0BD10B5054B43
:105080000446112240F8043B002101F068FC204650
:1050900010BD00BF10730D000346074A10B543F85A
:1050A000042B01F1100251F8044B43F8044B9142D8
:1050B000F9D10A781A7010BD10730D0010B59DF863
:1050C000084044EA032343EA024242EA016104231E
:1050D0004160037510BD37B50D788B784A78C97873
:1050E00000912946FFF7EAFF03B030BD704700206A
:1050F000704710B51021044600F0B9FD204610BDE0
:1051000008B508B1FFF7F5FF08BD0022026010B531
:105110004FF69C728280B1F9044084808A800268D4
:105120000C6804600A6010BD10B504460068FFF703
:1051300023FC204610BD38B5C468F4B12378022B97
:1051400003D104F10C00FFF7EFFF656835B1284685
:10515000FFF73AFC1021284600F089FDA56835B11B
:105160002846FFF731FC1021284600F080FD20463C
:105170001421BDE8384000F07ABD38BD13B50446AF
:1051800091E8050000234B600B602060626001A87D
:1051900001930093FEF7C0FF204602B010BDF7B5A3
:1051A0000C4602AD54F8043B45F8083D06460F4650
:1051B00001A82146FFF798FE29463046FFF7DEFF9B
:1051C00001A8FEF7A9FF2046FEF7A6FF38460821F2
:1051D00000F04DFD304603B0F0BD13B50B4604465C
:1051E00003C88DE8030093E8030084E803009DE80A
:1051F000030083E8030002B010BD000038B50023AF
:105200000446036010200D46FEF747FF28B1012336
:1052100043608360024B0360C5602060204638BD58
:1052200024730D00826810B50AB900F022FDC3682E
:10523000BDE81040184708B5006800F11001FFF7FD
:10524000F1FF08BD826810B50AB900F012FDC3680D
:10525000BDE81040184708B5006800F11001FFF7DD
:10526000F1FF08BD38B5002383608B6804460D4606
:105270002BB102229847EB68E360AB68A36020463D
:1052800038BD0000F0B589B004686846FFF73DFFFF
:1052900000238DF808304FF00202D4E84F3F002B76
:1052A00003D1C4E8412F0029F7D102D08DF808308E
:1052B00063E014F10C0503D069462846FFF725FF8B
:1052C000BFF35F8F01236370002004F10803BFF375
:1052D0005F8F53E8006F43E80002002AF9D1BFF363
:1052E0005F8F002E49D0FFF713FB20B129463046CF
:1052F000FFF798FF3AE0314602A8FFF7B3FFE068F6
:10530000B4F9105008B101F06DFB06901020ADF813
:105310001C50FEF7C2FE0546E8B100278760182042
:10532000FEF7BBFE044688B10146876002A8FFF77E
:1053300054FF049BA268A360059B049206A9E2683F
:10534000E36004F110000592FFF7DFFE0D4BEB6008
:105350000D4B2C60AB6006A8FFF7E6FE02A8FFF736
:1053600033FB002229460948FFF7DAFA3046FFF7F7
:105370002BFB1021304600F07AFC6846FFF7D4FE84
:1053800009B0F0BD37520D00AD540D00C54D0D00F4
:105390002DE9F04F8BB006460F46904699469DF892
:1053A00050A0FFF72DFA07AD834630BB4FF62E73A2
:1053B000059005A92846ADF81830FFF7A6FE142081
:1053C000FEF76BFE044658B10223037001234370BD
:1053D000C0F804B0C0F808B029460C30FFF795FEBD
:1053E0003046214640F8044BFFF708FF2846FFF7F8
:1053F0009BFE05A8FFF798FE52E000240C23142022
:105400006C60AC600793FEF748FE014618B104706B
:1054100044704460846004A80391FFF7EFFE224BC0
:1054200008930820FEF739FE044628B1039B40F894
:10543000043B04A9FFF758FD00955FFA8AF34A463A
:10544000414638460994FFF7E3F920B9039B5B789E
:1054500003F0FF0283B1039B059304A906A8FFF79D
:1054600043FD05A93046FFF789FE06A8FEF754FE66
:1054700004A8FEF751FE13E04FF69C7305A903A89C
:105480000592ADF81830FFF7FDFE05A8FFF74CFEBA
:1054900005A80999FFF783FE06A8FEF73DFEDAE7A7
:1054A00030460BB0BDE8F08F1D560D00022AF8B54E
:1054B000044606D0032A17D0012A22D10B680360C4
:1054C0001FE018200E68FEF7E8FD054650B1314692
:1054D000FFF7C8FE3069B6F9147008B101F082FA1E
:1054E0002861AF8225600CE0046854B104F110001B
:1054F000FFF71AFE2046FFF767FA1821204600F052
:10550000B6FB0020F8BD38B5002383608B680446E5
:105510000D462BB102229847EB68E360AB68A360AD
:10552000204638BD022A70B5044606D0032A11D0A1
:10553000012A18D10B68036015E014200E68FEF7ED
:10554000ACFD054620B13146FFF7DDFF337C2B74FF
:10555000256008E0046834B12046FFF735FA1421CD
:10556000204600F084FB002070BD0000F0B5002351
:1055700087B00C46BFF35F8F50E8006F40E8003201
:10558000002AF9D1BFF35F8F002E3FD01846FFF7F6
:10559000BFF9074620B121463046FFF753FE2EE003
:1055A000314601A8FFF7AFFF23788DF814301020A3
:1055B000FEF773FD0546D0B187601420FEF76DFD40
:1055C000044678B18760014601A8FFF706FE039BF9
:1055D000A268A360049B0392E268E3609DF8143024
:1055E000049223740A4BEB600A4B2C60AB6001A859
:1055F000FFF7EAF9002229460748FFF791F93046FC
:10560000FFF7E2F91021304600F031FB07B0F0BDA2
:1056100057520D0025550D00C54D0D0030B585B014
:1056200004460D4668461146FFF7B9FD7CB124B229
:1056300028460DB101F0D6F9029002A96846ADF8EE
:105640000C40FFF71FFE02A8FFF76EFD1DE000985B
:105650008DF808404FF00102D0E84F3FA34203D13C
:10566000C0E8412F0029F7D102D08DF808300CE0B6
:1056700010F10C014FF0010318BF0373BFF35F8FEC
:10568000043000F8033CFFF771FF01A8FEF744FD6A
:1056900005B030BD08B50C4B33B1FFF78FFC036884
:1056A0001B699847002809DC084B63B1FFF7F6FB3C
:1056B00003681B699847002803DC08BDAFF300802E
:1056C000F2E7AFF3008008BD00000000000000001A
:1056D00008B5FFF7DFFFFFF753F8014B186008BD6F
:1056E00004E7032007B5002300931A466FF0770103
:1056F000FFF730F903B05DF804FB000007B54388FD
:105700000A2B08D0502B09D1094B1B683BB103B0C1
:105710005DF804EB1847FFF7E5FF06E00023009370
:105720001A466FF07701FFF715F903B05DF804FB37
:105730008CE6032010B5FFF71BF8044601F018F9BA
:10574000074B13B12046AFF3008000210448FFF758
:105750006FF800210348BDE81040FFF7F1B800BF23
:1057600000000000FD560D0010B50446FFF72CF9AF
:10577000204610BD0348044A04490023836000F01A
:1057800071BA00BF90E603205CE3032069570D0067
:105790000021FFF7B5B80000F0B5144B144F1E6898
:1057A000144B064418683B6806449E428BB01BD0DD
:1057B0000AA801AD40F8286D00F0CEFF436903F25E
:1057C0006C73436104460FCC0FC50FCC0FC5D4F8E2
:1057D00000E0C5F800E001AD0FCD074C0FC40FCDC0
:1057E0000FC43E60C4F800E00BB0F0BDD0E603206B
:1057F000CCE60320C8E60320A0E6032008B500207D
:10580000FFF70EF828B1FEF7FBFF80F00100C0B2F1
:1058100008BD012008BD000008B5FFF7BDFF044B1F
:10582000986818B10C2802DD0C3808BD0C2008BDA2
:10583000A0E6032008B5FFF7AFFF034B98680B28DD
:10584000D4BF0020012008BDA0E6032010B5002031
:10585000FEF7A6FF044668B9FFF742F801280BD10E
:105860002046FFF765F838B9FFF7C8FF30B9FEF7F3
:10587000BFFFF9E7012010BD002010BDFFF7BEFFFC
:105880000020FEF78DFF003018BF012010BD08B5C5
:10589000FFF7DCFFBDE80840FEF77ABF08B5FFF769
:1058A000F6FFFFF7C7FFB0FA80F0400908BD08B562
:1058B000FFF7EDFFBDE80840FFF7BCBF024B1A68D9
:1058C000024B1A60704700BFA4E20320C4E6032025
:1058D000014B024A1A607047D4E60320D2730D00D0
:1058E000F8B506460D468F180024BD420CD033682B
:1058F00015F8011B9B6830469847002801DB0444DB
:10590000F3E7002C08BF04462046F8BD70B50546F5
:105910000C46084649B101F080F82B680246214642
:105920002846DB68BDE87040184770BD03689B6877
:10593000184730B58BB00B4600218DF82410012A92
:1059400098BF0A220DF12304B3FBF2F505FB1233D5
:1059500003F0FF03092B94BF30333733DBB221460A
:1059600004F801392B46002DEED1FFF7CFFF0BB025
:1059700030BD10B42AB903685DF8044B9B68C9B206
:105980001847D2B25DF8044BFFF7D3BFFFF7F1BF62
:10599000024800230360FEF7E3BE00BFD8E6032001
:1059A00010B504460068FEF7E7FF204610BD10B5AD
:1059B0000446006808B1FEF7DFFF00232360A36000
:1059C000636010BD38B504460D4600680131FEF72E
:1059D000DBFF10B184E82100012038BD10B5036859
:1059E000044613B143688B4207D22046FFF7EAFF13
:1059F00020B1A3680BB922681370012010BD70B5E7
:105A00000E46114604461546FFF7E8FF18B9204632
:105A1000FFF7CDFF09E02A463146A560206800F077
:105A200093FF2268A3680021D154204670BD38B589
:105A300005460C4641B1084600F0EFFF21460246FC
:105A40002846FFF7DCFF01E0FFF7B1FF284638BD2D
:105A500010B5044600238AB023606360A3602373FB
:105A6000084601A900F040F801A92046FFF7DFFF32
:105A700020460AB010BD10B5044600F0CEFF013834
:105A800023182046984206D20278197800F8011BA4
:105A900003F80129F6E710BD70B50C46911E2229C6
:105AA00020D82546294610B9234430220EE0B0FB09
:105AB000F2F602FB1600C1B205F8011B092894BFDB
:105AC0003031573105F8011C3046EBE7994202D2DC
:105AD00001F8012BFAE7002320460B70FFF7CBFFFC
:105AE000204670BD002070BD38B5031E0C4615461B
:105AF0000BDAB3F1004F4FF02D0214BF5842184695
:105B000001230A702A46194400E00123FFF7C4FF6D
:105B1000204638BD044B00204FF6FF7218705880A5
:105B20009A80FEF7E5BE00BFDCE60320704710B5A3
:105B30001021044600F09BF8204610BD70B5084BBC
:105B40000360044600250E4640F80C5FFEF700FE99
:105B500030462671FEF72CFEA560204670BD00BFC2
:105B600048740D00002211464068FEF7A1BE0022D5
:105B700011464068FEF7ACBE00224068FEF7A0BEAA
:105B8000002281F001014068FEF78ABE00231A4618
:105B900019464068FEF77CBE00231A461946406845
:105BA000FEF76EBE002211464068FEF761BE00227D
:105BB00011464068FEF74CBE002202214068FEF705
:105BC0004FBE00231A464068FEF73ABE024B03223E
:105BD0005A60024A1A607047E4E6032058740D00C8
:105BE00038B50B4D296811F001040FD12846FEF796
:105BF0005AFA58B121460748FFF7B0F82846FEF791
:105C000057FA054A0549034800F02CF8014838BD09
:105C1000ECE60320F0E603205CE30320054D0D00D5
:105C200070B50C4C0C4E0D4D00212046FFF786FF41
:105C300020460B4C3246294600F014F8012120463C
:105C4000FFF77CFF324629462046BDE8704000F051
:105C500009B800BF08E703205CE303202D5B0D00BB
:105C600018E703200B460146184600F067BDFEF713
:105C700016BA08B5FEF798FE184B1A68D1075CBF34
:105C800001221A60164B1A68D2075CBF01221A6003
:105C9000144B1A68D0075CBF01221A60124B1A68B5
:105CA000D1075CBF01221A60104B1A68D2075CBF93
:105CB00001221A600E4B1A68D0075CBF01221A60DD
:105CC0000C4B1A68D1075CBF01221A600A4B1A6894
:105CD000D2075CBF01221A60704700BF44E703206F
:105CE00040E703203CE7032038E7032034E70320A4
:105CF00030E703202CE7032028E70320244B1A6811
:105D0000D0075CBF01221A60224B1A68D1075CBF22
:105D100001221A60204B1A68D2075CBF01221A6068
:105D20001E4B1A68D0075CBF01221A601C4B1A6810
:105D3000D1075CBF01221A601A4B1A68D2075CBFF8
:105D400001221A60184B1A68D0075CBF01221A6042
:105D5000164B1A68D1075CBF01221A60144B1A68EF
:105D6000D2075CBF01221A60124B1A68D0075CBFD1
:105D700001221A60104B1A68D1075CBF01221A6019
:105D80000E4B1A68D2075CBF01221A60704700BF31
:105D900074E7032070E703206CE7032068E7032023
:105DA00064E7032060E703205CE7032058E7032053
:105DB00054E7032050E703204CE7032048E7032083
:105DC000244B1A68D0075CBF01221A60224B1A6864
:105DD000D1075CBF01221A60204B1A68D2075CBF52
:105DE00001221A601E4B1A68D0075CBF01221A609C
:105DF0001C4B1A68D1075CBF01221A601A4B1A6843
:105E0000D2075CBF01221A60184B1A68D0075CBF2A
:105E100001221A60164B1A68D1075CBF01221A6072
:105E2000144B1A68D2075CBF01221A60124B1A6821
:105E3000D0075CBF01221A60104B1A68D1075CBF03
:105E400001221A600E4B1A68D2075CBF01221A6049
:105E5000704700BFA4E70320A0E703209CE70320CE
:105E600098E7032094E7032090E703208CE70320C2
:105E700088E7032084E7032080E703207CE70320F2
:105E800078E70320184B1A68D1075CBF01221A601B
:105E9000164B1A68D2075CBF01221A60144B1A68AD
:105EA000D0075CBF01221A60124B1A68D1075CBF91
:105EB00001221A60104B1A68D2075CBF01221A60D7
:105EC0000E4B1A68D0075CBF01221A600C4B1A688F
:105ED000D1075CBF01221A600A4B1A68D2075CBF67
:105EE00001221A60704700BFC4E70320C0E7032007
:105EF000BCE70320B8E70320B4E70320B0E70320A2
:105F0000ACE70320A8E7032081F0004102E000BFD6
:105F100083F0004330B54FEA41044FEA430594EA69
:105F2000050F08BF90EA020F1FBF54EA000C55EAA4
:105F3000020C7FEA645C7FEA655C00F0E2804FEA75
:105F40005454D4EB5555B8BF6D420CDD2C4480EA57
:105F5000020281EA030382EA000083EA010180EA87
:105F6000020281EA0303362D88BF30BD11F0004FD5
:105F70004FEA01314FF4801C4CEA113102D040420B
:105F800061EB410113F0004F4FEA03334CEA133346
:105F900002D0524263EB430394EA050F00F0A7805E
:105FA000A4F10104D5F1200E0DDB02FA0EFC22FA59
:105FB00005F2801841F1000103FA0EF2801843FA4D
:105FC00005F359410EE0A5F120050EF1200E012A3E
:105FD00003FA0EFC28BF4CF0020C43FA05F3C0187C
:105FE00051EBE37101F0004507D54FF0000EDCF1F5
:105FF000000C7EEB00006EEB0101B1F5801F1BD39E
:10600000B1F5001F0CD349085FEA30004FEA3C0CA1
:1060100004F101044FEA445212F5800F80F09A8097
:10602000BCF1004F08BF5FEA500C50F1000041EB9B
:10603000045141EA050130BD5FEA4C0C404141EB9F
:10604000010111F4801FA4F10104E9D191F0000FC6
:1060500004BF01460020B1FA81F308BF2033A3F149
:106060000B03B3F120020CDA0C3208DD02F1140C40
:10607000C2F10C0201FA0CF021FA02F10CE002F17B
:106080001402D8BFC2F1200C01FA02F120FA0CFC74
:10609000DCBF41EA0C019040E41AA2BF01EB0451BD
:1060A000294330BD6FEA04041F3C1CDA0C340EDCBB
:1060B00004F11404C4F1200220FA04F001FA02F3FE
:1060C00040EA030021FA04F345EA030130BDC4F1BC
:1060D0000C04C4F1200220FA02F001FA04F340EAB1
:1060E0000300294630BD21FA04F0294630BD94F062
:1060F000000F83F4801306BF81F480110134013D49
:106100004EE77FEA645C18BF7FEA655C29D094EAB9
:10611000050F08BF90EA020F05D054EA000C04BF37
:106120001946104630BD91EA030F1EBF0021002022
:1061300030BD5FEA545C05D14000494128BF41F0C1
:10614000004130BD14F580043CBF01F5801130BD25
:1061500001F0004545F0FE4141F470014FF00000B0
:1061600030BD7FEA645C1ABF194610467FEA655C61
:106170001CBF0B46024650EA013406BF52EA033503
:1061800091EA030F41F4002130BD00BF90F0000FF1
:1061900004BF0021704730B54FF4806404F132042D
:1061A0004FF000054FF0000150E700BF90F0000FE6
:1061B00004BF0021704730B54FF4806404F132040D
:1061C00010F0004548BF40424FF000013EE700BFDD
:1061D00042004FEAE2014FEA31014FEA02701FBF6D
:1061E00012F07F4393F07F4F81F06051704792F03F
:1061F000000F14BF93F07F4F704730B54FF46074B9
:1062000001F0004521F0004120E700BF50EA010203
:1062100008BF704730B54FF000050AE050EA0102B0
:1062200008BF704730B511F0004502D5404261EB20
:1062300041014FF4806404F132045FEA915C3FF461
:10624000DCAE4FF003025FEADC0C18BF03325FEAFA
:10625000DC0C18BF033202EBDC02C2F1200300FAAF
:1062600003FC20FA02F001FA03FE40EA0E0021FAD4
:1062700002F11444C1E600BF70B54FF0FF0C4CF4BE
:10628000E06C1CEA11541DBF1CEA135594EA0C0F74
:1062900095EA0C0F00F0DEF82C4481EA030621EAAF
:1062A0004C5123EA4C5350EA013518BF52EA0335EA
:1062B00041F4801143F4801338D0A0FB02CE4FF09C
:1062C0000005E1FB02E506F00042E0FB03E54FF0CC
:1062D0000006E1FB03569CF0000F18BF4EF0010EC4
:1062E000A4F1FF04B6F5007F64F5407404D25FEAC0
:1062F0004E0E6D4146EB060642EAC62141EA555173
:106300004FEAC52040EA5E504FEACE2EB4F1FD0CB4
:1063100088BFBCF5E06F1ED8BEF1004F08BF5FEA32
:10632000500E50F1000041EB045170BD06F00046E4
:1063300046EA010140EA020081EA0301B4EB5C0491
:10634000C2BFD4EB0C0541EA045170BD41F4801189
:106350004FF0000E013C00F3AB8014F1360FDEBFAE
:10636000002001F0004170BDC4F10004203C35DA8A
:106370000C341BDC04F11404C4F1200500FA05F30D
:1063800020FA04F001FA05F240EA020001F00042AE
:1063900021F0004110EBD37021FA04F642EB060124
:1063A0005EEA430E08BF20EAD37070BDC4F10C044E
:1063B000C4F1200500FA04F320FA05F001FA04F212
:1063C00040EA020001F0004110EBD37041F10001FE
:1063D0005EEA430E08BF20EAD37070BDC4F1200509
:1063E00000FA05F24EEA020E20FA04F301FA05F271
:1063F00043EA020321FA04F001F0004121FA04F219
:1064000020EA020000EBD3705EEA430E08BF20EAE8
:10641000D37070BD94F0000F0FD101F00046400022
:1064200041EB010111F4801F08BF013CF7D041EAA4
:10643000060195F0000F18BF704703F000465200A8
:1064400043EB030313F4801F08BF013DF7D043EA79
:106450000603704794EA0C0F0CEA135518BF95EA2F
:106460000C0F0CD050EA410618BF52EA4306D1D1B6
:1064700081EA030101F000414FF0000070BD50EAD5
:10648000410606BF1046194652EA430619D094EA5F
:106490000C0F02D150EA013613D195EA0C0F05D149
:1064A00052EA03361CBF104619460AD181EA03019D
:1064B00001F0004141F0FE4141F470014FF0000055
:1064C00070BD41F0FE4141F4780170BD70B54FF0F0
:1064D000FF0C4CF4E06C1CEA11541DBF1CEA135570
:1064E00094EA0C0F95EA0C0F00F0A7F8A4EB050452
:1064F00081EA030E52EA03354FEA013100F0888049
:106500004FEA03334FF0805545EA131343EA126311
:106510004FEA022245EA111545EA10654FEA0026C6
:106520000EF000419D4208BF964244F1FD0404F57F
:10653000407402D25B084FEA3202B61A65EB0305DB
:106540005B084FEA32024FF480104FF4002CB6EB98
:10655000020E75EB030E22BFB61A754640EA0C0018
:106560005B084FEA3202B6EB020E75EB030E22BF58
:10657000B61A754640EA5C005B084FEA3202B6EB99
:10658000020E75EB030E22BFB61A754640EA9C0058
:106590005B084FEA3202B6EB020E75EB030E22BF28
:1065A000B61A754640EADC0055EA060E18D04FEAE6
:1065B000051545EA16754FEA06164FEAC30343EA86
:1065C00052734FEAC2025FEA1C1CC0D111F4801F53
:1065D0000BD141EA00014FF000004FF0004CB6E74C
:1065E00011F4801F04BF01430020B4F1FD0C88BFEB
:1065F000BCF5E06F3FF6AFAEB5EB030C04BFB6EBF6
:10660000020C5FEA500C50F1000041EB045170BDE8
:106610000EF0004E4EEA113114EB5C04C2BFD4EB15
:106620000C0541EA045170BD41F480114FF0000E99
:10663000013C90E645EA060E8DE60CEA135594EA15
:106640000C0F08BF95EA0C0F3FF43BAF94EA0C0F18
:106650000AD150EA01347FF434AF95EA0C0F7FF48D
:1066600025AF104619462CE795EA0C0F06D152EAE1
:1066700003353FF4FDAE1046194622E750EA4106C5
:1066800018BF52EA43067FF4C5AE50EA41047FF4D6
:106690000DAF52EA43057FF4EBAE12E74FEA410239
:1066A000B2F1E04324BFB3F5001CDCF1FE5C0DD970
:1066B00001F0004C4FEAC0024CEA5070B2F1004FBA
:1066C00040EB830008BF20F00100704711F0804FBD
:1066D00021D113F13872BCBF01F00040704741F482
:1066E00080114FEA5252C2F11802C2F1200C10FA86
:1066F0000CF320FA02F018BF40F001004FEAC1236A
:106700004FEAD32303FA0CFC40EA0C0023FA02F30D
:106710004FEA4303CCE77FEA625307D150EA0133E3
:106720001EBF4FF0FE4040F44000704701F00040B3
:1067300040F0FE4040F40000704700BF10B5054C2B
:1067400013462CB10A4601460220AFF3008010BD6B
:10675000204610BD0000000038B5074B1C68E36BF5
:1067600005461BB92420FEF7FFF8E063E16B2846DD
:10677000BDE8384000F002B80CE303202DE9F041F9
:106780000C46804600F062FC21460746404600F079
:1067900061FC466906F26C76B307044605D16422B3
:1067A00096FBF2F302FB13634BB94FF4C87596FBEB
:1067B000F5F305FB1365B5FA85F35B0900E00123EA
:1067C0005F4A302505FB032500F074FA00F074FAE7
:1067D0005C4B1B68F3B17B689E4205D13968D8F8E1
:1067E0000030FA6941B90AE0304600F0BBF90028F0
:1067F000F4D14FF0FF330DE0934208DB01E0934208
:1068000007DABA6B9342ACBF0023012302E00023F6
:1068100000E001232362236A012B0CBFF96B396A64
:106820004FF461633C2091FBF3F603FB16136168A0
:1068300093FBF0F200FB12302368891AA2686160B2
:106840001B1A921B3B2B2360A26003DD01316160A8
:106850003C3B04E0002B03DA013961603C332360E8
:1068600063683B2B03DD0132A2603C3B04E0002B5C
:1068700003DA013AA2603C336360A368172B22DD80
:10688000E2690132E261A2690132062AC8BF002230
:10689000A261E268183B0132A3602369E26055F807
:1068A00023108A4246DD01330C2B0CBF6369236140
:1068B000A2EB0102E26001BF0133002222616361A9
:1068C00008BFE26136E0002B34DAE269013AE261A6
:1068D000A269013A48BF0622A261E2681833013A70
:1068E000E260A36032BB2369013B01D423611DE058
:1068F0000B23236163695A1E12F0030F626103F2D6
:106900006B7305D1642193FBF1F201FB12324AB99A
:106910004FF4C87193FBF1F201FB1233B3FA83F326
:106920005B0900E0012303F5B673E361236955F8C1
:106930002330E36000F0BFF92046BDE8F08100BFDE
:10694000EC750D00E4E7032010B5431E0A449142A4
:1069500004D011F8014B03F8014FF8E710BD0244D1
:106960000346934202D003F8011BFAE77047000088
:1069700038B5124B1C68A36B0546D3B91820FDF738
:10698000F3FF43F20E33A06303804AF6CD33438016
:1069900041F2342383804EF26D63C3804DF6EC6385
:1069A0000381052343810B23838101220023C0E956
:1069B0000423A36B00221D615A6138BD0CE3032040
:1069C00010F8012B11F8013B012A28BF9A42F7D099
:1069D000D01A7047034611F8012B03F8012B002A47
:1069E000F9D17047024B0146186800F003B800BFA8
:1069F0000CE3032070B5064608460C4600F00DF87F
:106A0000451C29463046FDF7D7FF064618B12A46F1
:106A10002146FFF799FF304670BD034613F8012B5E
:106A2000002AFBD1181A0138704730B582B1451ED3
:106A3000013915F8013F11F8014FA34206D1EC438B
:106A40001444E04201D0002BF3D11C46181B30BD8A
:106A5000104630BD2DE9F04780463C48D0F8009004
:106A60000E46354615F8014B09EB0400407800F05E
:106A7000080000F0FF0708B12E46F2E72D2C03D1E5
:106A8000B51C7478012703E02B2C04BF7478B51C67
:106A900013B1102B0AD153E0302C4FD1287800F0DD
:106AA000DF00582845D16C78102302354FF0FF3CA9
:106AB0000026BCFBF3FC03FB0CFA6FEA0A0A304623
:106AC00009EB040E9EF801E01EF0040F01D0303CEB
:106AD0000BE01EF0030E1AD0BEF1010F0CBF4FF0F9
:106AE000370E4FF0570ECEEB0404A3420FDD002EFD
:106AF00008DB604506D801D1544503DC03FB0040A8
:106B0000012601E04FF0FF3615F8014BD8E7002EC3
:106B100007DA2223C8F800304FF0FF302AB9BDE869
:106B2000F08707B1404272B106B1691E1160BDE83D
:106B3000F0873024002BB9D10823B7E70A23B5E743
:106B4000302CABD0B2E7BDE8F08700BFA8E203204D
:106B500013460A46014602480068FFF77BBF00BFA4
:106B60000CE303202DE9F74F044600F06FFA40F2E2
:106B7000B1739C4240F396806FF4F663E318A4F27D
:106B8000B2729B1040F26D1505FB0235A4F26D72D6
:106B90006FF0630392FBF3F36FF4C8622B44A51804
:106BA0004FF4C87295FBF2F51D44642394FBF2F791
:106BB00094FBF3F602FB174703FB164600F138037C
:106BC000B7FA87FE019304F0030344604FEA5E1EA8
:106BD000014600934FF0070C0B7A4A2B0ED14B69FC
:106BE000009AEC1802B906B927B93B2BD4BF002391
:106BF000012300E000232344013B3FE0442B02D16A
:106C00004B692B443AE0009B2BB9002E0CBFF04699
:106C10004FF0010800E0F046244BCC68302202FB24
:106C20000838A8F1040AA9460123A34204DA5AF855
:106C300004BF0133D944F8E709F1040393FBFCFBDB
:106C4000CBEBCB0A012CCAEB030A4B69B8BF01247A
:106C500004F18044B3EB0A0A0B6904F1FF3403F139
:106C6000FF3348BF0AF1070AC3EBC30358F82440B7
:106C70005344A34201DB073BFBE74B448C690C4ABE
:106C800002FB03430C6A234441F81C3F019B9942D9
:106C9000A2D1C369826B9342ACBF0023012303607E
:106CA000012000E0002003B0BDE8F08FEC750D007E
:106CB0008051010070477047014B186800F002B81E
:106CC0000CE303202DE9F04F8DB0074600F0BEF92C
:106CD000B049B14E0446384600F0B0F9054660B9F7
:106CE000AE4BAF4A1860AF4B1860AF4B30681A60BC
:106CF0005A60FDF741FE356048E1316879B9306886
:106D0000FDF73AFE2846FFF788FE411C3846FDF79E
:106D100053FE306048B12946FFF75CFE05E0FFF7FF
:106D20004FFE002800F03281E9E72B789F4AA04906
:106D30003A2B08BF01350AAE33462846FDF72CFE34
:106D4000002840F323810A9BEF18EB5C2D2B03D125
:106D500001374FF0FF3503E02B2B08BF013701252A
:106D60000DF1200A0DF11E0B4FF000080396CDF82F
:106D700008A00196CDF800B0334607AA8D49ADF8BA
:106D80001E803846ADF82080FDF706FE404540F3F2
:106D9000FD80BDF81E20BDF82030DFF824923C2194
:106DA00001FB0233BDF81C204FF4616101FB02338B
:106DB0005D4325627C4D7D4B2B600A9B7C491F44C3
:106DC0004A4633463846FDF7E7FD404508DC2B6868
:106DD0006B60724B226A1A60724BC3F80080D5E078
:106DE0000A9BC5F80490FD18FB5C2D2B03D10135DF
:106DF0004FF0FF3703E02B2B08BF0135012700239D
:106E0000ADF81C30ADF81E30ADF820300A93039673
:106E1000CDF808A00196CDF800B0334607AA654921
:106E20002846FDF7B9FD002804DC236AA3F5616359
:106E3000E3630EE0BDF81E20BDF820303C2101FBCD
:106E40000233BDF81C204FF4616101FB02335F4344
:106E5000E7630A9B27461D444FF000092B782C2B33
:106E600008BF013595F80080B8F14D0F26D10DF11E
:106E70002603029309AB00930396019633460DF166
:106E800022024D492846FDF787FD03287ED1BDF833
:106E900022104B1E0B2B79D8BDF82420531E042B37
:106EA00074D8BDF82630062B70D887F80880F960B2
:106EB0003A617B610A9B05EB03082AE0B8F14A0FAF
:106EC00006BF0135434644230A220BA928460593F1
:106ED000FFF73EFEDDF82C80ADF826004545059B0A
:106EE00014D14D23B9F1000F07D123720323E360BE
:106EF00002232361C4F814900BE084F824300B23A0
:106F0000A3620123E3620023236302E080B23B72A9
:106F100078610223ADF81C300023ADF81E30ADF8C7
:106F200020300A9398F800302F2B0BD10396CDF820
:106F300008A00196CDF800B0334607AA1F49404685
:106F4000FDF72AFDBDF81E20BDF820303C2101FBD5
:106F50000233BDF81C204FF4616101FB0233BB61B9
:106F60000A9D09F10109B9F1020F454407F11C0717
:106F70007FF474AF6068FFF7F5FD084B226A1A6072
:106F8000E36B9B1A074A18BF012313600DB0BDE8DD
:106F9000F08F00BF4C760D00E0E70320E8E7032008
:106FA0004F760D00E4E7032010E30320D3E703202E
:106FB00053760D0076760D0062760D0075760D0025
:106FC000C8E703202DE9F84F07468B46904600F0AE
:106FD000D9F8194B1D689A463DB15C46234613F813
:106FE000012B42B13D2A1C46F8D1384600F0CBF8BF
:106FF0000020BDE8F88FCBEB0404A94659F8040B38
:107000000028F2D022465946FFF70FFD88B959F8FB
:10701000043C1E191B5D3D2B0BD1DAF80030ED1A34
:10702000AD103846C8F8005000F0ADF8701CBDE84F
:10703000F88F4D46E1E700BF58E3032007B501AAEA
:10704000FFF7C0FF03B05DF804FB00000048704785
:1070500018E303200268474BF0B592FBF3F403FBFF
:107060001422002ABCBF02F5A83202F5C0724FF408
:10707000616004F52F2492FBF0F300FB13224FF024
:107080003C00ACBF04F66C2404F66B248B6092FBCE
:10709000F0F300FB13224B600A600723E21C92FB13
:1070A000F3F3C3EBC303D31A8B61334B334D94FB20
:1070B000F5F503FB054448F6AC62B4FBF2F222445A
:1070C00040F2B457B4FBF7F3D21A2D48B4FBF0F0FA
:1070D00048F69466131AB3FBF6F6344440F26D1288
:1070E000B3FBF2F0B3FBF7F3E31A02FB103399247E
:1070F00003EB83020232B2FBF4F20A2A04FB02F42D
:1071000004F102064FF00504B6FBF4F434BF022686
:107110006FF0090616444FF4C87202FB05055F1CA8
:10712000012E98BF0135B3F5997FA7EB040702D371
:10713000A3F5997214E0820705D16424B0FBF4F240
:1071400004FB12024AB94FF4C872B0FBF2F402FB1E
:107150001400B0FA80F2520900E001223B331A44D5
:10716000A5F26C750023CA614D610E61CF600B62A0
:107170000846F0BD805101004FC5FDFFB13A020045
:10718000B03A02007047704721400D005D400D008D
:1071900089400D008D400D000000000074656D7089
:1071A000657261747572650068756D69646974797A
:1071B000005570646174696E6720636C696D6174F9
:1071C0006520646174612066696C6500636C696D3B
:1071D0006174654176657261676555706461746557
:1071E000000000000000000000000000DB490D006E
:1071F000E5490D00EF490D00F9490D00034A0D0066
:107200000F4A0D001B4A0D00274A0D002F4A0D00A2
:10721000394A0D00434A0D00000000000000000044
:10722000834B0D00794B0D006F4B0D00654B0D002E
:10723000594B0D004D4B0D00414B0D00394B0D00CE
:107240002F4B0D00254B0D00434A0D0000000000A0
:1072500000000000E74C0D00DD4C0D00D34C0D008C
:10726000894C0D00C74C0D00BB4C0D00AF4C0D0000
:10727000A74C0D009D4C0D00934C0D00434A0D0092
:107280000000000000000000054D0D004F4D0D00F6
:10729000274D0D00074D0D002F4D0D00374D0D00F2
:1072A0003F4D0D00474D0D000000000000000000A4
:1072B000ED4D0D003D4E0D004B4E0D00E1580D0003
:1072C000014E0D00234E0D000F4E0D00374E0D00E8
:1072D000EF4D0D00F34D0D00000000000000000018
:1072E000FB4E0D004B4F0D00594F0D00E1580D00A6
:1072F000374F0D00FD4E0D00134F0D00454F0D0093
:10730000294F0D00F74E0D000000000000000000A6
:1073100019500D0009500D000B500D000000000029
:1073200000000000ED500D00F3500D0037510D002E
:1073300001510D00EF500D00252B3033643A2530FC
:1073400032750025592D256D2D25645425483A2583
:107350004D3A2553257A0061736374696D65006247
:107360006175640053657269616C0053657269618F
:107370006C31007479706500706172616D00636DCD
:107380006400696400686E64007374726D006669FD
:107390006C74006C766C0061646448616E646C654A
:1073A000720072656D6F766548616E646C6572001F
:1073B000656E756D48616E646C657273004A534FFB
:1073C0004E53747265616D4C6F6748616E646C6595
:1073D000720061707000253031307520005D200032
:1073E0002564002C200028293A2000205B00636FD0
:1073F0006465203D200025690064657461696C73D3
:10740000203D20000D0A0066006C6E00666E006371
:107410006F64650064657461696C006E6F6E650011
:10742000747261636500696E666F007761726E00E9
:107430006572726F720070616E696300616C6C00DE
:1074400000000000000000002D5B0D002F5B0D0010
:107450000000000000000000C35B0D00B95B0D00E0
:10746000AF5B0D00A55B0D00995B0D008D5B0D0002
:10747000815B0D00795B0D006F5B0D00655B0D009E
:10748000434A0D00002020202020202020202828F2
:1074900028282820202020202020202020202020D4
:1074A0002020202020881010101010101010101014
:1074B0001010101010040404040404040404041044
:1074C00010101010101041414141414101010101D2
:1074D000010101010101010101010101010101019C
:1074E00010101010101042424242424202020202A8
:1074F000020202020202020202020202020202026C
:10750000101010102000000000000000000000001B
:10751000000000000000000000000000000000006B
:10752000000000000000000000000000000000005B
:10753000000000000000000000000000000000004B
:10754000000000000000000000000000000000003B
:10755000000000000000000000000000000000002B
:10756000000000000000000000000000000000001B
:10757000000000000000000000000000000000000B
:1075800000000000000000000000000000000000FB
:1075900000000000000000000000000000000000EB
:1075A00000000000000000000000000000000000DB
:1075B00000000000000000000000000000000000CB
:1075C00000000000000000000000000000000000BB
:1075D00000000000000000000000000000000000AB
:1075E0000000000000000000430000001F00000039
:1075F0001C0000001F0000001E0000001F00000013
:107600001E0000001F0000001F0000001E00000000
:107610001F0000001E0000001F0000001F000000EF
:107620001D0000001F0000001E0000001F000000E1
:107630001E0000001F0000001F0000001E000000D0
:107640001F0000001E0000001F000000545A0047E9
:107650004D54002531305B5E302D392C2B2D5D25AE
:107660006E004D256875256E2E256875256E2E25B4
:107670006875256E002F256875256E3A2568752575
:107680006E3A256875256E0011420D008B450D0080
:10769000114B0D00394C0D00F14C0D0075570D00CC
:1076A000BD580D00D1580D0091590D00155B0D000E
:1076B000CD5B0D00215C0D00795C0D00FD5C0D00C3
:1076C000C15D0D00855E0D0000000000000000009F
:1076D00057730D0084740D000000000088750D00C4
:1076E000A8750D00C8750D00000000000000000026
:1076F0000000000000000000E8750D000000000020
:107700000000000000000000000000000000000079
:107710000000000000000000000000000000000069
:107720000000000000000000000000000000000059
:107730000000000000000000ACE203204F760D00C6
:107740004F760D0001000000000000004A0000001C
:107750000000000000000000000000000000000029
:1077600000000000000000004A00000000000000CF
:107770000000000000000000000000000000000009
:0877800000000000ECE703200B
:10778800FFFFFFFF00000102030405060708090ABE
:107798000B0C0D0E0F101112131415161718191AB9
:0877A8001B1C1D1E1F20280000
:0477B00078563412C1
:04000003D0004020C9
:00000001FF
