:02000002D0002C
:1040000000400D00C47A0D00000006000C00050100
:084010000401DE0500000000C0
:0440180084740D009F
:1040200009480A49884208B505D0094A824202D0A7
:10403000121A02F007FE0748074A0021121A02F07E
:104040000CFE014808BD00BF9CE20320E4790D008E
:1040500054E3032054E30320F0E7032070B501F09C
:1040600021FC074C074BE41AA40800251E46A54274
:1040700004D056F8253098470135F8E770BD00BFE9
:10408000E0790D00A4790D0000F02AB808B500F021
:1040900065F8BDE8084001F0C7BB00F0E7BC00F0E0
:1040A000EDBC00F0EBBC0078B0FA80F0400970473E
:1040B00001230370704738B50446006928B185684C
:1040C0000C2101F041FF2846F8E7204638BD03687F
:1040D000D86820B183888B4201D08068F9E77047A7
:1040E000014800F0BDBA00BF58E3032070B501F0ED
:1040F00098FC0E4C01F05AFC2378054626463BB945
:10410000082805DD01F09DFC012801D1207070BD5B
:1041100033780BB1052D01DC002070BD01F088FC67
:104120000128F9D1014B0020187070BD80E30320F5
:1041300038B5046805467CB16368013B63605BB9D0
:10414000236820469B689847A368013BA3601BB97E
:1041500023682046DB689847284638BDF0B52DED2A
:10416000028B5A485A4C89B000F036F95748B0EEE5
:10417000408A00F0EBF8FDEEC87A052317EE901A9E
:104180000A2201EBC10104A891FBF3F12031F0EE0A
:10419000408A01F02DFD2378049A4E498DF80030B5
:1041A00002A83C2301F0A0F903A8FFF7C1FF04A86F
:1041B00001F0C6FCFDEEE87A0A2217EE901A04A878
:1041C00001F016FD2378049A43498DF8003002A8C7
:1041D0003C2301F089F903A8FFF7AAFF04A801F026
:1041E000AFFCFFF783FF58B123788DF8003004A8A7
:1041F0003C233A4A3A4901F077F905A8FFF798FFBE
:10420000384C42F2107001F08DFB237D1BB30E2160
:104210002046FFF75CFF40B1037B042B1BD0806876
:1042200018B183880E2BFAD1F5E72F49102001F041
:104230008FFE0546002840D010263246002102F0AD
:104240000CFD02236B800E232E80AB802369AB60B4
:1042500004232B732561237D224F2BB3FB6843F08E
:104260000103FB600421012338463B72FFF72FFF57
:10427000054618B14CF25033C36015E01A491020BE
:1042800001F066FE0446D0B110263246294602F0FF
:10429000E4FC0223638004232680A3803B69A3609F
:1042A0004CF25033E3603C6104A80E4901F03EFD3E
:1042B000049830B100F0E2FB03E02075CBE73875DD
:1042C000F2E709B0BDEC028BF0BD00BF58E303205C
:1042D00064E3032098740D00A4740D00AD740D0008
:1042E000C8740D0068E30320A0770D0070B50D4B76
:1042F0000D4C01261E70102500F0D2FA0B4800F07C
:104300001FF8201D2A460021206002F0A6FC02238F
:104310002675A580E3802046054A0649BDE8704021
:1043200001F004BE64E3032068E3032058E30320A4
:1043300054E30320B7400D000368C9B29B681847D7
:1043400040220272002242600260704710B50446AB
:1043500001F0C6FD94F9081000F0DBFD01F0C0FD8E
:104360000368F5219B68984701F0BAFD002100F031
:10437000D3FD192001F0D6FA01F0B2FD217A032213
:1043800000F0C0FD01F0ACFD03685B69984784B2A2
:1043900001F0A6FD03685B69984740EA042004B277
:1043A00001F09EFD03685B699847A3B207EE903A5F
:1043B0009FED067AF8EE677AB9EE080A67EE877A1B
:1043C0009FED037AA7EE870A10BD00BF0000FA42F6
:1043D000000080370000000010B5044601F080FDA9
:1043E00094F9081000F095FD01F07AFD0368F321BF
:1043F0009B68984701F074FD002100F08DFD1920A5
:1044000001F090FA01F06CFD0322217A00F07AFDB0
:1044100001F066FD03685B69984784B201F060FDB6
:1044200003685B69984740EA042004B201F058FD34
:1044300003685B699847A0B207EE900AF8EE677AC6
:1044400017EE900A02F042F810A3D3E9002302F01D
:1044500091F802F0A1FADFED0C7A07EE100A67EE90
:10446000277A17EE900A02F031F805A3D3E900236A
:1044700001F0CCFE02F090FA00EE100A10BD00BF71
:10448000CDCCCCCCCC6C474000008037D7A3703D5E
:104490000AF7654010B5044601F022FD94F90810B2
:1044A00000F037FD01F01CFD0368FE219B68984772
:1044B00001F016FD00F034FD3220BDE8104001F09F
:1044C00031BA10B5044601F00BFD94F9081000F064
:1044D00020FD01F005FD0021FFF72EFF01F000FD9A
:1044E0000F21FFF729FF01F0FBFC00F019FD01F09F
:1044F000F7FC0822217A00F005FD01F0F1FC0368C9
:104500005B699847206001F0EBFC03685B699847A2
:1045100023681B02236001F0E3FC03685B69984792
:1045200023681843206001F0DBFC03685B6998474F
:1045300023681B02236001F0D3FC03685B69984782
:1045400023681843206001F0CBFC03685B6998473F
:1045500023681B02236001F0C3FC03685B69984772
:1045600023681843206001F0BBFC03685B6998472F
:1045700001F0B6FC94F9081000F0CBFC01F0B0FC9F
:104580000021FFF7D9FE01F0ABFCC921FFF7D4FEF3
:1045900001F0A6FC00F0C4FC01F0A2FC217A082284
:1045A00000F0B0FC01F09CFC03685B699847606018
:1045B00001F096FC03685B69984763681B026360BF
:1045C00001F08EFC03685B6998476368184360607C
:1045D00001F086FC03685B69984763681B026360AF
:1045E00001F07EFC03685B6998476368184360606C
:1045F00001F076FC03685B69984763681B0263609F
:1046000001F06EFC03685B6998476368184360605B
:1046100001F066FC0368BDE810405B69184738B5D7
:1046200004460D4601F05CFC94F9081000F071FCA2
:1046300001F056FC036829469B68984701F050FC3E
:10464000002100F069FC01F04BFC0122217A00F00E
:1046500059FC01F045FC03685B699847C0B238BD5E
:1046600010B5044601F03CFC00F018FC2046FFF7B2
:1046700011FFE7212046FFF7D2FF3A2804D1204658
:10468000FFF71FFF012010BD002010BD00F008B98A
:1046900008B5024B1B681B68019308BD4C02030060
:1046A00008B5024B1B681B69019308BD4C0203004F
:1046B00008B5024B1B685B69019308BD4C020300FF
:1046C00008B5024B1B689B69019308BD4C020300AF
:1046D00008B5024B1B68DB69019308BD4C0203005F
:1046E00008B5024B1B681B6A019308BD4C0203000E
:1046F00008B5024B1B68DB68019308BD2802030064
:1047000008B5024B1B689B69019308BD2802030092
:1047100008B5024B1B68DB69019308BD2802030042
:1047200008B5024B1B681B6A019308BD28020300F1
:1047300008B5024B1B685B6A019308BD28020300A1
:1047400008B5024B1B689B6A019308BD2802030051
:1047500008B5024B1B68DB6A019308BD2802030001
:1047600008B5024B1B681B6B019308BD28020300B0
:1047700008B5024B1B681B6C019308BD280203009F
:1047800008B5024B1B681B6D019308BD280203008E
:1047900008B5024B1B681B68019308BD3C0203006F
:1047A00008B5024B1B68DB68019308BD3C0203009F
:1047B00008B5024B1B681B69019308BD3C0203004E
:1047C00008B5024B1B685B69019308BD3C020300FE
:1047D00008B5024B1B689B69019308BD3C020300AE
:1047E00008B5024B1B68DB69019308BD3C0203005E
:1047F00008B5024B1B689B6A019308BD3C0203008D
:1048000008B5024B1B685B69019308BD6402030095
:1048100008B5024B1B689B68019308BD4802030062
:1048200008B5024B1B681B69019308BD48020300D1
:1048300008B5024B1B685B69019308BD4802030081
:1048400008B5024B1B685B6C019308BD480203006E
:1048500008B5024B1B689B6C019308BD480203001E
:1048600008B5024B1B685B68019308BD1802030082
:1048700008B5024B1B685B69019308BD1802030071
:1048800008B5024B1B68DB69019308BD18020300E1
:1048900008B5024B1B689B6D019308BD180203000D
:1048A00008B5024B1B681B68019308BD2C0203006E
:1048B00008B5024B1B689B68019308BD68020300A2
:1048C00008B5024B1B68DB68019308BD6802030052
:1048D00008B5024B1B681B6D019308BD6002030005
:1048E00008B5024B1B689B68019308BD4402030096
:1048F00008B5024B1B685B69019308BD44020300C5
:1049000008B5024B1B681B6A019308BD44020300F3
:1049100008B5024B1B681B6B019308BD44020300E2
:1049200008B5024B1B68DB6B019308BD4402030012
:1049300008B5024B1B685B68019308BD4002030089
:1049400008B5024B1B689B68019308BD4002030039
:1049500008B5024B1B68DB68019308BD40020300E9
:1049600008B5024B1B681B69019308BD4002030098
:1049700008B5024B1B685B69019308BD4002030048
:1049800008B5024B1B689B69019308BD40020300F8
:1049900008B5024B1B68DB69019308BD40020300A8
:1049A00008B5024B1B681B6A019308BD4002030057
:1049B00008B5024B1B681B6B019308BD4002030046
:1049C00008B5024B1B685B6B019308BD40020300F6
:1049D00008B5024B1B681B68019308BD2002030049
:1049E00008B5024B1B685B68019308BD20020300F9
:1049F00008B5024B1B685B69019308BD20020300E8
:104A000008B5024B1B68DB6C019308BD2002030054
:104A100008B5024B1B685B6D019308BD20020300C3
:104A200008B5024B1B689B6D019308BD2002030073
:104A300008B5034B1B68D3F88830019308BD00000C
:104A40002002030008B5034B1B68D3F89430019390
:104A500008BD00002002030008B5034B1B68D3F813
:104A6000A830019308BD00002002030008B5024BE6
:104A70001B681B68019308BD1C02030008B5024BAC
:104A80001B685B68019308BD1C02030008B5024B5C
:104A90001B689B68019308BD1C02030008B5024B0C
:104AA0001B689B69019308BD1C02030008B5024BFB
:104AB0001B68DB6A019308BD1C02030008B5024BAA
:104AC0001B681B6B019308BD1C02030010B58368B3
:104AD000044613B1032201469847204610BD002327
:104AE0001A464068FFF724BF002202214068FFF702
:104AF0002FBF002211464068FFF722BF0022114657
:104B00004068FFF72DBF00231A4619464068FFF79B
:104B10002FBF00231A4619464068FFF731BF002215
:104B200081F001014068FFF733BF00224068FFF7C2
:104B30003FBF002211464068FFF742BF00221146E6
:104B40004068FFF72DBF2DE9F043002495B01646CD
:104B50000D46074600F03EFB214620220CA800949B
:104B600002F07BF840230C9321466B460CAA30469A
:104B7000FFF7A6FE0446002844D1024601216868DA
:104B8000FFF7EEFE0221804622466868FFF7E8FE46
:104B9000009E81462146002E34D0002932D1736810
:104BA000022B02D00A2B09D02AE0B8F1000F27D03F
:104BB00071693846043100F03AFB20E0B9F1000F8A
:104BC0001ED07469112201A802F047F806238DF85F
:104BD000143001AD04F108031834186859682A46E6
:104BE00003C20833A3421546F7D101A906A807ADB1
:104BF00000F0FEFA0FCD3C1D0FC42B68237001217D
:104C0000F669C8E70098FFF753FE384615B0BDE8CF
:104C1000F0830000024B034A1A6000225A6070477A
:104C200084E30320E8740D00002211464068FFF77A
:104C3000B7BE002211464068FFF7C2BE002240689E
:104C4000FFF7B6BE002281F001014068FFF7A0BE69
:104C500000231A4601214068FFF792BE00231A463E
:104C600019464068FFF784BE002211464068FFF7EE
:104C700077BE002211464068FFF762BE0022022183
:104C80004068FFF765BE00231A464068FFF750BE34
:104C900038B5054688B104684CB1A3681BB103223E
:104CA0002146204698471021204601F04DF928461C
:104CB0001421BDE8384001F047B938BD10B1036890
:104CC0005B681847704710B503680446BBB1586865
:104CD000FFF79EFD78B923685A7C12B95868FFF730
:104CE0009FFD23685868FFF7A3FD20680023236019
:104CF00028B1FFF7CDFF206808B1FFF7C9FF2046B4
:104D000010BD38B50446D0F8C40108B1FFF7C9F9A1
:104D1000D4F8C00108B1FFF79BFDD4F8BC5135B100
:104D20002846FFF7D0FF0421284601F00DF920683E
:104D300008B1FFF7C3FF204638BD000010B5044B93
:104D4000044640F8083BFFF7DCFF204610BD00BFDB
:104D50001C750D0038B50E4C0E4B23600025022348
:104D600004F5E4706360A560C4F8C451C4F8C85188
:104D7000FFF766FD084BC4F8CC5184F8D05123608E
:104D80002046064A0649BDE8384001F0CFB800BFCA
:104D90008CE30320E8740D001C750D0054E3032020
:104DA0003D4D0D00002211464068FFF7D9BD00229D
:104DB00011464068FFF7F4BD002211464068FFF736
:104DC000FFBD00224068FFF7F3BD002281F0010122
:104DD0004068FFF7DDBD00231A4619464068FFF71B
:104DE000CFBD00231A4619464068FFF7C1BD002217
:104DF00011464068FFF7A4BD002202214068FFF77A
:104E0000A7BD00231A464068FFF792BD024B04225B
:104E10005A60024A1A60704760E5032050750D0021
:104E20007047F8B5064615460C468F18BC4206D0AA
:104E3000336814F8011B9B6830469847F6E728460C
:104E4000F8BD0022007CFFF76BBC0021007CFFF75F
:104E50006FBC0021007CFFF773BC0021007CFFF7D2
:104E600077BC0021007CFFF77BBC10B51421044601
:104E700001F06AF8204610BD10B5044600236360B7
:104E80004FF47A73A360044B2174084623601146E3
:104E9000FFF76EFC204610BD84750D0000231A46F6
:104EA0001946007CFFF724BC70B50C4686B014256B
:104EB00006462A46002101A801F0CFFE23788DF88E
:104EC000083063680393E36804930022237A307CFC
:104ED000ADF8045001A90593FFF752FC06B070BD70
:104EE0001FB500338DF800104FF06401039118BF17
:104EF0000123694601928DF80830FFF7D5FF05B010
:104F00005DF804FB0123FFF7EBBF0022007CFFF7F5
:104F1000F7BBC9B2FFF7F9BF0022007CFFF7F8BB6F
:104F20000121FFF7F9BF10B5836804460BB901F002
:104F30001EF8C3689847A3681BB103222146204688
:104F4000984720461021BDE8104000F0FDBF704793
:104F50004174704708B5007CFFF74AFC20EAE07016
:104F600008BD08B5007CFFF723FC20EAE07008BD0F
:104F700008B5007CFFF72CFC30EA200028BF4FF07A
:104F8000FF3008BD08B5007CFFF71AFC30EA2000AE
:104F900028BF4FF0FF3008BD007CFFF721BC10B5E3
:104FA0001421044600F0D0FF204610BD70B5457CAA
:104FB00004460E4625B9007CFFF71AFC002805DDE3
:104FC0003146207CBDE87040FFF7EABB284670BD43
:104FD00010B5044608461146002262604FF47A720A
:104FE000A260054A22600122207462741A46FFF70B
:104FF000CFFB204610BD00BFAC750D0038B50C4D81
:10500000296811F0010411D12846FFF74CF868B166
:10501000084A094B09482146FFF7DAFF2846FFF7FF
:1050200047F8074A0749054800F080FF034838BDA4
:1050300000E6032004E603207CE5032068E5032066
:1050400054E303204F4F0D000B68036013B15A68FF
:1050500001325A60704741747047704708B50021AB
:10506000007CFFF72DFB30EA200028BF4FF0FF3017
:1050700008BD08B50121007CFFF722FB30EA2000C3
:1050800028BF4FF0FF3008BD08B5007CFFF710FBCC
:1050900020EAE07008BD08B5007CFFF701FB20EABC
:1050A000E07008BD007CFFF71BBB10B5142104465F
:1050B00000F04AFF204610BD38B50446007C0D467E
:1050C000FFF7F6FA002801DC607C28B12946207C35
:1050D000FFF7FEFA20EAE07038BD000010B5044684
:1050E000002363604FF47A73A360054B23600123B0
:1050F0000846217463741146FFF7CAFA204610BDB2
:10510000DC750D0010B514220446002101F0A5FD48
:10511000204610BD30B50E4D87B001A8FFF7F2FF55
:10512000296811F0010410D12846FEF7BCFF60B1D8
:1051300001AA21460748FFF7D1FF2846FEF7B8FF2E
:10514000054A0649034800F0F1FE024807B030BDA9
:1051500088E603208CE6032054E303205B500D0017
:10516000704710B51821044600F0EEFE204610BD31
:10517000F0B5037D062B8DB00E4600F104074FF00D
:10518000000402D000F1080518E00CAD394605F81E
:10519000304D2F232A460A20FFF732FB284601F024
:1051A000BAFD33680246DB682946304698470FE06F
:1051B00024B12E21304600F083FC044415F8011D73
:1051C0000A22304600F07FFCBD420444F0D1204664
:1051D0000DB0F0BD10B5054B0446112240F8043B5C
:1051E000002101F03AFD204610BD00BF0C760D00F5
:1051F0000346074A10B543F8042B01F1100251F899
:10520000044B43F8044B9142F9D10A781A7010BD4F
:105210000C760D0010B59DF8084044EA032343EADC
:10522000024242EA016104234160037510BD37B5B3
:105230000D788B784A78C97800912946FFF7EAFF04
:1052400003B030BD70470020704710B510210446F0
:1052500000F07AFE204610BD08B508B1FFF7F5FF53
:1052600008BD0022026010B54FF69C728280B1F931
:10527000044084808A8002680C6804600A6010BD63
:1052800010B504460068FFF7F9FB204610BD38B59D
:10529000C468F4B12378022B03D104F10C00FFF7AA
:1052A000EFFF656835B12846FFF710FC102128464E
:1052B00000F04AFEA56835B12846FFF707FC10212B
:1052C000284600F041FE20461421BDE8384000F099
:1052D0003BBE38BD13B5044691E8050000234B6082
:1052E0000B602060626001A801930093FEF720FF2D
:1052F000204602B010BDF7B50C4602AD54F8043B91
:1053000045F8083D06460F4601A82146FFF79CFEDA
:1053100029463046FFF7DEFF01A8FEF709FF2046C9
:10532000FEF706FF3846082100F00EFE304603B0B7
:10533000F0BD13B50B46044603C88DE8030093E89F
:10534000030084E803009DE8030083E8030002B043
:1053500010BD000038B500230446036010200D4640
:10536000FEF79BFE28B1012343608360024B03607C
:10537000C5602060204638BD20760D00826810B5DB
:105380000AB900F0F4FDC368BDE81040184708B53D
:10539000006800F11001FFF7F1FF08BD826810B549
:1053A0000AB900F0E4FDC368BDE81040184708B52D
:1053B000006800F11001FFF7F1FF08BD38B50023C8
:1053C00083608B6804460D462BB102229847EB6838
:1053D000E360AB68A360204638BD0000F0B589B03B
:1053E00004686846FFF73DFF00238DF808304FF052
:1053F0000202D4E84F3F002B03D1C4E8412F00291B
:10540000F7D102D08DF8083063E014F10C0503D019
:1054100069462846FFF725FFBFF35F8F01236370BE
:10542000002004F10803BFF35F8F53E8006F43E8E7
:105430000002002AF9D1BFF35F8F002E49D0FFF799
:10544000DFFA20B129463046FFF798FF3AE03146AF
:1054500002A8FFF7B3FFE068B4F9105008B101F0FB
:105460003FFC06901020ADF81C50FEF716FE0546D6
:10547000E8B1002787601820FEF70FFE044688B1C8
:105480000146876002A8FFF754FF049BA268A3604F
:10549000059B049206A9E268E36004F110000592FE
:1054A000FFF7DFFE0D4BEB600D4B2C60AB6006A8E9
:1054B000FFF7E6FE02A8FFF709FB0022294609488C
:1054C000FFF7A6FA3046FFF701FB1021304600F047
:1054D0003BFD6846FFF7D4FE09B0F0BD8F530D00C9
:1054E00005560D00274F0D002DE9F04F8BB00646F5
:1054F0000F46904699469DF850A0FFF7F9F907AD81
:10550000834630BB4FF62E73059005A92846ADF8AB
:105510001830FFF7A6FE1420FEF7BFFD044658B171
:105520000223037001234370C0F804B0C0F808B030
:1055300029460C30FFF795FE3046214640F8044BD3
:10554000FFF708FF2846FFF79BFE05A8FFF798FE28
:1055500052E000240C2314206C60AC600793FEF72B
:105560009CFD014618B1047044704460846004A836
:105570000391FFF7EFFE224B08930820FEF78DFD05
:10558000044628B1039B40F8043B04A9FFF75CFDE7
:1055900000955FFA8AF34A46414638460994FFF778
:1055A000AFF920B9039B5B7803F0FF0283B1039B43
:1055B000059304A906A8FFF747FD05A93046FFF7A4
:1055C00089FE06A8FEF7B4FD04A8FEF7B1FD13E0BE
:1055D0004FF69C7305A903A80592ADF81830FFF7A4
:1055E000FDFE05A8FFF74CFE05A80999FFF783FE0D
:1055F00006A8FEF79DFDDAE730460BB0BDE8F08F58
:1056000075570D00022AF8B5044606D0032A17D0B4
:10561000012A22D10B6803601FE018200E68FEF7F4
:105620003CFD054650B13146FFF7C8FE3069B6F97A
:10563000147008B101F054FB2861AF8225600CE0C2
:10564000046854B104F11000FFF71AFE2046FFF77A
:105650003DFA1821204600F077FC0020F8BD38B54F
:10566000002383608B6804460D462BB102229847C5
:10567000EB68E360AB68A360204638BD022A70B5D2
:10568000044606D0032A11D0012A18D10B68036002
:1056900015E014200E68FEF700FD054620B13146E6
:1056A000FFF7DDFF337C2B74256008E0046834B11C
:1056B0002046FFF70BFA1421204600F045FC00209D
:1056C00070BD0000F0B5002387B00C46BFF35F8FBC
:1056D00050E8006F40E80032002AF9D1BFF35F8F35
:1056E000002E3FD01846FFF78BF9074620B1214620
:1056F0003046FFF753FE2EE0314601A8FFF7AFFF1B
:1057000023788DF814301020FEF7C7FC0546D0B181
:1057100087601420FEF7C1FC044678B1876001461B
:1057200001A8FFF706FE039BA268A360049B0392F7
:10573000E268E3609DF81430049223740A4BEB6036
:105740000A4B2C60AB6001A8FFF7C0F90022294684
:105750000748FFF75DF93046FFF7B8F910213046EA
:1057600000F0F2FB07B0F0BDAF530D007D560D0009
:10577000274F0D0030B585B004460D4668461146EA
:10578000FFF7B9FD7CB124B228460DB101F0A8FAAB
:10579000029002A96846ADF80C40FFF71FFE02A870
:1057A000FFF76EFD1DE000988DF808404FF00102F4
:1057B000D0E84F3FA34203D1C0E8412F0029F7D1E1
:1057C00002D08DF808300CE010F10C014FF001030D
:1057D00018BF0373BFF35F8F043000F8033CFFF77B
:1057E00071FF01A8FEF7A4FC05B030BD08B50C4B55
:1057F00033B1FFF78FFC03681B699847002809DC69
:10580000084B63B1FFF7FAFB03681B699847002850
:1058100003DC08BDAFF30080F2E7AFF3008008BD02
:10582000000000000000000008B5FFF7DFFFFFF7F1
:105830001FF8014B186008BD20E703200248034A07
:105840000349121A01F0FEB900F4032004F4032006
:10585000E0790D0007B5002300931A466FF0770139
:10586000FFF7F0F803B05DF804FB000007B54388CC
:105870000A2B08D0502B09D1094B1B683BB103B050
:105880005DF804EB1847FFF7E5FF06E000230093FF
:105890001A466FF07701FFF7D5F803B05DF804FB07
:1058A000A0E6032038B5104C104D2368AB42104BD6
:1058B0000CBF012200221A7002D0FFF7BFFF256043
:1058C000FEF7CEFF044601F0D1F90A4B13B1204692
:1058D000AFF3008000210748FFF722F800210648B7
:1058E000BDE83840FFF7A4B800F403201E1C279A37
:1058F000A4E60320000000006D580D0010B504461A
:10590000FFF7E4F8204610BD0348044A0449002389
:10591000836000F00BBB00BFA8E6032054E3032024
:10592000FD580D000021FFF763B80000F0B5144BDF
:10593000144F1E68144B064418683B6806449E4288
:105940008BB01BD00AA801AD40F8286D01F082F899
:10595000436903F26C73436104460FCC0FC50FCC4F
:105960000FC5D4F800E0C5F800E001AD0FCD074C3D
:105970000FC40FCD0FC43E60C4F800E00BB0F0BD03
:10598000E8E60320E4E60320E0E60320B8E603208F
:1059900008B50020FEF7BCFF28B1FEF7A9FF80F094
:1059A0000100C0B208BD012008BD000008B5FFF726
:1059B000BDFF044B986818B10C2802DD0C3808BDF7
:1059C0000C2008BDB8E6032008B5FFF7AFFF034B76
:1059D00098680B28D4BF0020012008BDB8E603203A
:1059E00010B50020FEF754FF044668B9FEF7F0FF3B
:1059F00001280BD12046FFF713F838B9FFF7C8FF8D
:105A000030B9FEF76DFFF9E7012010BD002010BD91
:105A1000FFF7BEFF0020FEF73BFF003018BF01205C
:105A200010BD08B5FFF7DCFFBDE80840FEF728BF52
:105A300008B5FFF7F6FFFFF7C7FFB0FA80F040099F
:105A400008BD08B5FFF7EDFFBDE80840FFF7BCBF94
:105A5000024B1A68024B1A60704700BF9CE2032099
:105A6000DCE60320014B024A1A607047ECE6032093
:105A7000CE760D00F8B506460D468F180024BD42BF
:105A80000CD0336815F8011B9B68304698470028F6
:105A900001DB0444F3E7002C08BF04462046F8BDB0
:105AA00070B505460C46084649B101F034F92B683B
:105AB000024621462846DB68BDE87040184770BDA5
:105AC00003689B68184730B58BB00B4600218DF8F2
:105AD0002410012A98BF0A220DF12304B3FBF2F52A
:105AE00005FB123303F0FF03092B94BF3033373328
:105AF000DBB2214604F801392B46002DEED1FFF729
:105B0000CFFF0BB030BD10B50446006808B1FEF7FA
:105B10009FFE204610BD000010B5064C0023204615
:105B20002360FEF78DFE2046034A0449BDE810407D
:105B300000F0FCB9F0E6032054E30320075B0D00FE
:105B400010B504460068FEF799FF204610BD10B559
:105B50000446006808B1FEF791FF00232360A360AC
:105B6000636010BD38B504460D4600680131FEF78C
:105B70008DFF10B184E82100012038BD10B5036805
:105B8000044613B143688B4207D22046FFF7EAFF71
:105B900020B1A3680BB922681370012010BD70B545
:105BA0000E46114604461546FFF7E8FF18B9204691
:105BB000FFF7CDFF09E02A463146A560206801F0D5
:105BC00041F82268A3680021D154204670BD38B541
:105BD00005460C4641B1084601F09DF821460246B3
:105BE0002846FFF7DCFF01E0FFF7B1FF284638BD8C
:105BF00010B5044600238AB023606360A36023735A
:105C0000084601A900F040F801A92046FFF7DFFF90
:105C100020460AB010BD10B5044601F07CF80138EA
:105C200023182046984206D20278197800F8011B02
:105C300003F80129F6E710BD70B50C46911E222924
:105C400020D82546294610B9234430220EE0B0FB67
:105C5000F2F602FB1600C1B205F8011B092894BF39
:105C60003031573105F8011C3046EBE7994202D23A
:105C700001F8012BFAE7002320460B70FFF7CBFF5A
:105C8000204670BD002070BD38B5031E0C46154679
:105C90000BDAB3F1004F4FF02D0214BF58421846F3
:105CA00001230A702A46194400E00123FFF7C4FFCC
:105CB000204638BD10B50446006818B1FEF7DEFE78
:105CC0000023236010BD10B50446FFF7F3FF204604
:105CD00010BD38B5B1F9043083800B460D4653F83A
:105CE000062FC0F806209B8843810446FFF7E2FF99
:105CF0002B6813B1236000232B60204638BD0000C1
:105D000038B50C460546FFF7D5FF44B12088FEF7AD
:105D1000ADFE286028B12288214600F093FF0020C4
:105D200038BD014838BD00BFFCFEFFFFF0B5304D67
:105D30000B7D04468BB00846AF1D13B30B681B796F
:105D4000FBB100224FF6FF7302A904300292ADF8B6
:105D50000C208DF80E20ADF81020ADF81230FEF7B3
:105D60007BFE0AAB00B253F81A2DADF80C009B88ED
:105D7000A880C5F806200299BB802846FFF7C0FF1F
:105D80001CE02023002602931A4B00931A49039625
:105D90003346322002AAFEF79BFD4FF6FF73ADF8A3
:105DA000123002A94FF6F263114802968DF80E6088
:105DB000ADF81060ADF80C30FFF78BFF02A8FFF7CD
:105DC00079FF00232360A380A37123814FF6FF7323
:105DD0006381B5F90430A3803B68C4F80630BB8802
:105DE000638129682046FFF78BFF20460BB0F0BD8A
:105DF000F4E6032043770D003C770D0010B5094C05
:105E000000204FF6FF732060A080A0712081638185
:105E1000FEF7E6FD2046044A0449BDE8104000F0C4
:105E200085B800BFF4E6032054E30320C75C0D00EF
:105E3000002211464068FEF7B3BD002211464068BB
:105E4000FEF7BEBD00224068FEF7B2BD002281F021
:105E500001014068FEF79CBD00231A4619464068C0
:105E6000FEF78EBD00231A4619464068FEF780BD36
:105E7000002211464068FEF773BD002211464068BB
:105E8000FEF75EBD002202214068FEF761BD0023DF
:105E90001A464068FEF74CBD024B03225A60024A84
:105EA0001A60704700E7032074770D0070B5044650
:105EB00014252A46094E002100F0CFFE258020251A
:105EC0003146A5602561284600F040F83146606003
:105ED000284600F03BF8E060204670BDA0770D003A
:105EE00030B50E4D296811F0010487B013D1284652
:105EF000FEF7D9F878B101A8FFF7D8FF01AA21462B
:105F00000748FEF7B9FF2846FEF7D2F8054A0649CA
:105F1000034800F00BF8024807B030BD08E7032043
:105F20000CE7032054E30320214E0D000B460146ED
:105F3000184600F081BD0000024B1868BFF35F8F68
:105F4000704700BF24E70320FEF7A9B800F000B8AF
:105F500010B5002814BF044601242046FEF786FD34
:105F600020B9FFF7E9FF08B18047F6E710BD08B593
:105F7000FEF79CFD184B1A68D1075CBF01221A601E
:105F8000164B1A68D2075CBF01221A60144B1A68BC
:105F9000D0075CBF01221A60124B1A68D1075CBFA0
:105FA00001221A60104B1A68D2075CBF01221A60E6
:105FB0000E4B1A68D0075CBF01221A600C4B1A689E
:105FC000D1075CBF01221A600A4B1A68D2075CBF76
:105FD00001221A60704700BF44E7032040E7032016
:105FE0003CE7032038E7032034E7032030E70320B1
:105FF0002CE7032028E70320244B1A68D0075CBF56
:1060000001221A60224B1A68D1075CBF01221A6074
:10601000204B1A68D2075CBF01221A601E4B1A6817
:10602000D0075CBF01221A601C4B1A68D1075CBF05
:1060300001221A601A4B1A68D2075CBF01221A604B
:10604000184B1A68D0075CBF01221A60164B1A68F9
:10605000D1075CBF01221A60144B1A68D2075CBFDB
:1060600001221A60124B1A68D0075CBF01221A6025
:10607000104B1A68D1075CBF01221A600E4B1A68D8
:10608000D2075CBF01221A60704700BF74E703208B
:1060900070E703206CE7032068E7032064E7032030
:1060A00060E703205CE7032058E7032054E7032060
:1060B00050E703204CE7032048E70320244B1A68ED
:1060C000D0075CBF01221A60224B1A68D1075CBF5F
:1060D00001221A60204B1A68D2075CBF01221A60A5
:1060E0001E4B1A68D0075CBF01221A601C4B1A684D
:1060F000D1075CBF01221A601A4B1A68D2075CBF35
:1061000001221A60184B1A68D0075CBF01221A607E
:10611000164B1A68D1075CBF01221A60144B1A682B
:10612000D2075CBF01221A60124B1A68D0075CBF0D
:1061300001221A60104B1A68D1075CBF01221A6055
:106140000E4B1A68D2075CBF01221A60704700BF6D
:10615000A4E70320A0E703209CE7032098E703209F
:1061600094E7032090E703208CE7032088E70320CF
:1061700084E7032080E703207CE7032078E70320FF
:10618000184B1A68D1075CBF01221A60164B1A68B7
:10619000D2075CBF01221A60144B1A68D0075CBF9B
:1061A00001221A60124B1A68D1075CBF01221A60E3
:1061B000104B1A68D2075CBF01221A600E4B1A6896
:1061C000D0075CBF01221A600C4B1A68D1075CBF74
:1061D00001221A600A4B1A68D2075CBF01221A60BA
:1061E000704700BFC4E70320C0E70320BCE70320DB
:1061F000B8E70320B4E70320B0E70320ACE70320AF
:10620000A8E7032081F0004102E000BF83F00043D3
:1062100030B54FEA41044FEA430594EA050F08BF41
:1062200090EA020F1FBF54EA000C55EA020C7FEA05
:10623000645C7FEA655C00F0E2804FEA5454D4EB82
:106240005555B8BF6D420CDD2C4480EA020281EA4C
:10625000030382EA000083EA010180EA020281EA84
:106260000303362D88BF30BD11F0004F4FEA0131D6
:106270004FF4801C4CEA113102D0404261EB4101E5
:1062800013F0004F4FEA03334CEA133302D052426B
:1062900063EB430394EA050F00F0A780A4F1010427
:1062A000D5F1200E0DDB02FA0EFC22FA05F2801861
:1062B00041F1000103FA0EF2801843FA05F3594147
:1062C0000EE0A5F120050EF1200E012A03FA0EFCC6
:1062D00028BF4CF0020C43FA05F3C01851EBE371F0
:1062E00001F0004507D54FF0000EDCF1000C7EEB0D
:1062F00000006EEB0101B1F5801F1BD3B1F5001F4B
:106300000CD349085FEA30004FEA3C0C04F1010469
:106310004FEA445212F5800F80F09A80BCF1004F92
:1063200008BF5FEA500C50F1000041EB045141EA14
:10633000050130BD5FEA4C0C404141EB010111F415
:10634000801FA4F10104E9D191F0000F04BF0146C0
:106350000020B1FA81F308BF2033A3F10B03B3F19E
:1063600020020CDA0C3208DD02F1140CC2F10C022E
:1063700001FA0CF021FA02F10CE002F11402D8BF8C
:10638000C2F1200C01FA02F120FA0CFCDCBF41EA58
:106390000C019040E41AA2BF01EB0451294330BD27
:1063A0006FEA04041F3C1CDA0C340EDC04F1140404
:1063B000C4F1200220FA04F001FA02F340EA0300DB
:1063C00021FA04F345EA030130BDC4F10C04C4F121
:1063D000200220FA02F001FA04F340EA0300294601
:1063E00030BD21FA04F0294630BD94F0000F83F44B
:1063F000801306BF81F480110134013D4EE77FEA2E
:10640000645C18BF7FEA655C29D094EA050F08BF79
:1064100090EA020F05D054EA000C04BF194610465A
:1064200030BD91EA030F1EBF0021002030BD5FEA9E
:10643000545C05D14000494128BF41F0004130BDC6
:1064400014F580043CBF01F5801130BD01F000451A
:1064500045F0FE4141F470014FF0000030BD7FEA8D
:10646000645C1ABF194610467FEA655C1CBF0B4688
:10647000024650EA013406BF52EA033591EA030F9F
:1064800041F4002130BD00BF90F0000F04BF002197
:10649000704730B54FF4806404F132044FF00005CA
:1064A0004FF0000150E700BF90F0000F04BF002143
:1064B000704730B54FF4806404F1320410F00045A9
:1064C00048BF40424FF000013EE700BF42004FEAA4
:1064D000E2014FEA31014FEA02701FBF12F07F4321
:1064E00093F07F4F81F06051704792F0000F14BF1E
:1064F00093F07F4F704730B54FF4607401F0004562
:1065000021F0004120E700BF50EA010208BF7047B8
:1065100030B54FF000050AE050EA010208BF7047AD
:1065200030B511F0004502D5404261EB41014FF416
:10653000806404F132045FEA915C3FF4DCAE4FF01A
:1065400003025FEADC0C18BF03325FEADC0C18BF01
:10655000033202EBDC02C2F1200300FA03FC20FA52
:1065600002F001FA03FE40EA0E0021FA02F114449F
:10657000C1E600BF70B54FF0FF0C4CF4E06C1CEAB4
:1065800011541DBF1CEA135594EA0C0F95EA0C0F29
:1065900000F0DEF82C4481EA030621EA4C5123EA9C
:1065A0004C5350EA013518BF52EA033541F48011CB
:1065B00043F4801338D0A0FB02CE4FF00005E1FB7E
:1065C00002E506F00042E0FB03E54FF00006E1FBC8
:1065D00003569CF0000F18BF4EF0010EA4F1FF040B
:1065E000B6F5007F64F5407404D25FEA4E0E6D414B
:1065F00046EB060642EAC62141EA55514FEAC5205C
:1066000040EA5E504FEACE2EB4F1FD0C88BFBCF5D7
:10661000E06F1ED8BEF1004F08BF5FEA500E50F188
:10662000000041EB045170BD06F0004646EA01014E
:1066300040EA020081EA0301B4EB5C04C2BFD4EB80
:106640000C0541EA045170BD41F480114FF0000E79
:10665000013C00F3AB8014F1360FDEBF002001F0E7
:10666000004170BDC4F10004203C35DA0C341BDC61
:1066700004F11404C4F1200500FA05F320FA04F033
:1066800001FA05F240EA020001F0004221F0004167
:1066900010EBD37021FA04F642EB06015EEA430EDA
:1066A00008BF20EAD37070BDC4F10C04C4F120050A
:1066B00000FA04F320FA05F001FA04F240EA0200BD
:1066C00001F0004110EBD37041F100015EEA430E8E
:1066D00008BF20EAD37070BDC4F1200500FA05F2AE
:1066E0004EEA020E20FA04F301FA05F243EA02032D
:1066F00021FA04F001F0004121FA04F220EA02003C
:1067000000EBD3705EEA430E08BF20EAD37070BD81
:1067100094F0000F0FD101F00046400041EB010161
:1067200011F4801F08BF013CF7D041EA060195F043
:10673000000F18BF704703F00046520043EB0303FD
:1067400013F4801F08BF013DF7D043EA06037047EA
:1067500094EA0C0F0CEA135518BF95EA0C0F0CD0F5
:1067600050EA410618BF52EA4306D1D181EA03013B
:1067700001F000414FF0000070BD50EA410606BF35
:106780001046194652EA430619D094EA0C0F02D17A
:1067900050EA013613D195EA0C0F05D152EA0336BF
:1067A0001CBF104619460AD181EA030101F00041DD
:1067B00041F0FE4141F470014FF0000070BD41F026
:1067C000FE4141F4780170BD70B54FF0FF0C4CF400
:1067D000E06C1CEA11541DBF1CEA135594EA0C0F1F
:1067E00095EA0C0F00F0A7F8A4EB050481EA030E6C
:1067F00052EA03354FEA013100F088804FEA033353
:106800004FF0805545EA131343EA12634FEA022220
:1068100045EA111545EA10654FEA00260EF00041E1
:106820009D4208BF964244F1FD0404F5407402D233
:106830005B084FEA3202B61A65EB03055B084FEAC4
:1068400032024FF480104FF4002CB6EB020E75EBC1
:10685000030E22BFB61A754640EA0C005B084FEAE9
:106860003202B6EB020E75EB030E22BFB61A754666
:1068700040EA5C005B084FEA3202B6EB020E75EBB1
:10688000030E22BFB61A754640EA9C005B084FEA29
:106890003202B6EB020E75EB030E22BFB61A754636
:1068A00040EADC0055EA060E18D04FEA051545EA25
:1068B00016754FEA06164FEAC30343EA52734FEACE
:1068C000C2025FEA1C1CC0D111F4801F0BD141EA47
:1068D00000014FF000004FF0004CB6E711F4801FAC
:1068E00004BF01430020B4F1FD0C88BFBCF5E06F8C
:1068F0003FF6AFAEB5EB030C04BFB6EB020C5FEA9C
:10690000500C50F1000041EB045170BD0EF0004EF0
:106910004EEA113114EB5C04C2BFD4EB0C0541EA22
:10692000045170BD41F480114FF0000E013C90E61F
:1069300045EA060E8DE60CEA135594EA0C0F08BFE3
:1069400095EA0C0F3FF43BAF94EA0C0F0AD150EAE2
:1069500001347FF434AF95EA0C0F7FF425AF104675
:1069600019462CE795EA0C0F06D152EA03353FF49D
:10697000FDAE1046194622E750EA410618BF52EA1A
:1069800043067FF4C5AE50EA41047FF40DAF52EAEE
:1069900043057FF4EBAE12E74FEA4102B2F1E04368
:1069A00024BFB3F5001CDCF1FE5C0DD901F0004CF6
:1069B0004FEAC0024CEA5070B2F1004F40EB830046
:1069C00008BF20F00100704711F0804F21D113F172
:1069D0003872BCBF01F00040704741F480114FEAAB
:1069E0005252C2F11802C2F1200C10FA0CF320FA34
:1069F00002F018BF40F001004FEAC1234FEAD32351
:106A000003FA0CFC40EA0C0023FA02F34FEA4303BA
:106A1000CCE77FEA625307D150EA01331EBF4FF043
:106A2000FE4040F44000704701F0004040F0FE405E
:106A300040F40000704700BF10B5054C13462CB160
:106A40000A4601460220AFF3008010BD204610BD6B
:106A50000000000038B5074B1C68E36B05461BB906
:106A60002420FEF703F8E063E16B2846BDE83840D8
:106A700000F002B804E303202DE9F0410C46804603
:106A800000F062FC21460746404600F061FC466982
:106A900006F26C76B307044605D1642296FBF2F346
:106AA00002FB13634BB94FF4C87596FBF5F305FB76
:106AB0001365B5FA85F35B0900E001235F4A3025D1
:106AC00005FB032500F074FA00F074FA5C4B1B68B8
:106AD000F3B17B689E4205D13968D8F80030FA6975
:106AE00041B90AE0304600F0BBF90028F4D14FF07C
:106AF000FF330DE0934208DB01E0934207DABA6B03
:106B00009342ACBF0023012302E0002300E00123F5
:106B10002362236A012B0CBFF96B396A4FF461635E
:106B20003C2091FBF3F603FB1613616893FBF0F234
:106B300000FB12302368891AA26861601B1A921B3D
:106B40003B2B2360A26003DD013161603C3B04E02C
:106B5000002B03DA013961603C33236063683B2B0F
:106B600003DD0132A2603C3B04E0002B03DA013A72
:106B7000A2603C336360A368172B22DDE269013217
:106B8000E261A2690132062AC8BF0022A261E2685E
:106B9000183B0132A3602369E26055F823108A4252
:106BA00046DD01330C2B0CBF63692361A2EB0102AC
:106BB000E26001BF013300222261636108BFE2612C
:106BC00036E0002B34DAE269013AE261A269013A67
:106BD00048BF0622A261E2681833013AE260A3606E
:106BE00032BB2369013B01D423611DE00B232361E8
:106BF00063695A1E12F0030F626103F26B7305D1D1
:106C0000642193FBF1F201FB12324AB94FF4C871CF
:106C100093FBF1F201FB1233B3FA83F35B0900E05B
:106C2000012303F5B673E361236955F82330E3606C
:106C300000F0BFF92046BDE8F08100BF08790D00E3
:106C4000E4E7032010B5431E0A44914204D011F832
:106C5000014B03F8014FF8E710BD0244034693428D
:106C600002D003F8011BFAE77047000038B5124B59
:106C70001C68A36B0546D3B91820FDF7F7FE43F255
:106C80000E33A06303804AF6CD33438041F23423B0
:106C900083804EF26D63C3804DF6EC630381052360
:106CA00043810B23838101220023C0E90423A36BCA
:106CB00000221D615A6138BD04E3032010F8012B46
:106CC00011F8013B012A28BF9A42F7D0D01A704729
:106CD000034611F8012B03F8012B002AF9D1704764
:106CE000024B0146186800F003B800BF04E303201C
:106CF00070B5064608460C4600F00DF8451C2946BE
:106D00003046FDF7DBFE064618B12A462146FFF75E
:106D100099FF304670BD034613F8012B002AFBD1C2
:106D2000181A0138704730B582B1451E013915F87F
:106D3000013F11F8014FA34206D1EC431444E04255
:106D400001D0002BF3D11C46181B30BD104630BDBE
:106D50002DE9F04780463C48D0F800900E46354675
:106D600015F8014B09EB0400407800F0080000F032
:106D7000FF0708B12E46F2E72D2C03D1B51C74781D
:106D8000012703E02B2C04BF7478B51C13B1102B22
:106D90000AD153E0302C4FD1287800F0DF0058287A
:106DA00045D16C78102302354FF0FF3C0026BCFB28
:106DB000F3FC03FB0CFA6FEA0A0A304609EB040EF7
:106DC0009EF801E01EF0040F01D0303C0BE01EF0F5
:106DD000030E1AD0BEF1010F0CBF4FF0370E4FF06B
:106DE000570ECEEB0404A3420FDD002E08DB6045F6
:106DF00006D801D1544503DC03FB0040012601E025
:106E00004FF0FF3615F8014BD8E7002E07DA2223A2
:106E1000C8F800304FF0FF302AB9BDE8F08707B15D
:106E2000404272B106B1691E1160BDE8F08730249E
:106E3000002BB9D10823B7E70A23B5E7302CABD034
:106E4000B2E7BDE8F08700BFA0E2032013460A4680
:106E5000014602480068FFF77BBF00BF04E3032040
:106E60002DE9F74F044600F06FFA40F2B1739C42EF
:106E700040F396806FF4F663E318A4F2B2729B10AD
:106E800040F26D1505FB0235A4F26D726FF06303DD
:106E900092FBF3F36FF4C8622B44A5184FF4C87249
:106EA00095FBF2F51D44642394FBF2F794FBF3F693
:106EB00002FB174703FB164600F13803B7FA87FEBB
:106EC000019304F0030344604FEA5E1E0146009301
:106ED0004FF0070C0B7A4A2B0ED14B69009AEC1835
:106EE00002B906B927B93B2BD4BF0023012300E028
:106EF00000232344013B3FE0442B02D14B692B4448
:106F00003AE0009B2BB9002E0CBFF0464FF0010871
:106F100000E0F046244BCC68302202FB0838A8F190
:106F2000040AA9460123A34204DA5AF804BF013334
:106F3000D944F8E709F1040393FBFCFBCBEBCB0A44
:106F4000012CCAEB030A4B69B8BF012404F1804449
:106F5000B3EB0A0A0B6904F1FF3403F1FF3348BFB6
:106F60000AF1070AC3EBC30358F824405344A34271
:106F700001DB073BFBE74B448C690C4A02FB0343F4
:106F80000C6A234441F81C3F019B9942A2D1C3697A
:106F9000826B9342ACBF002301230360012000E019
:106FA000002003B0BDE8F08F08790D00805101008A
:106FB00070477047014B186800F002B804E30320E3
:106FC0002DE9F04F8DB0074600F0BEF9B049B14E43
:106FD0000446384600F0B0F9054660B9AE4BAF4AFA
:106FE0001860AF4B1860AF4B30681A605A60FDF7FD
:106FF00045FD356048E1316879B93068FDF73EFDFF
:107000002846FFF788FE411C3846FDF757FD3060E3
:1070100048B12946FFF75CFE05E0FFF74FFE002868
:1070200000F03281E9E72B789F4AA0493A2B08BF4C
:1070300001350AAE33462846FDF730FD002840F3FF
:1070400023810A9BEF18EB5C2D2B03D101374FF006
:10705000FF3503E02B2B08BF013701250DF1200A76
:107060000DF11E0B4FF000080396CDF808A0019615
:10707000CDF800B0334607AA8D49ADF81E803846DA
:10708000ADF82080FDF70AFD404540F3FD80BDF8D6
:107090001E20BDF82030DFF824923C2101FB023392
:1070A000BDF81C204FF4616101FB02335D43256292
:1070B0007C4D7D4B2B600A9B7C491F444A463346DE
:1070C0003846FDF7EBFC404508DC2B686B60724BE3
:1070D000226A1A60724BC3F80080D5E00A9BC5F89B
:1070E0000490FD18FB5C2D2B03D101354FF0FF37C9
:1070F00003E02B2B08BF013501270023ADF81C301E
:10710000ADF81E30ADF820300A930396CDF808A0F4
:107110000196CDF800B0334607AA65492846FDF729
:10712000BDFC002804DC236AA3F56163E3630EE081
:10713000BDF81E20BDF820303C2101FB0233BDF814
:107140001C204FF4616101FB02335F43E7630A9B3C
:1071500027461D444FF000092B782C2B08BF013522
:1071600095F80080B8F14D0F26D10DF1260302935A
:1071700009AB00930396019633460DF122024D4967
:107180002846FDF78BFC03287ED1BDF822104B1E4C
:107190000B2B79D8BDF82420531E042B74D8BDF8CE
:1071A0002630062B70D887F80880F9603A617B6139
:1071B0000A9B05EB03082AE0B8F14A0F06BF013528
:1071C000434644230A220BA928460593FFF73EFEB7
:1071D000DDF82C80ADF826004545059B14D14D23E4
:1071E000B9F1000F07D123720323E3600223236167
:1071F000C4F814900BE084F824300B23A36201231D
:10720000E3620023236302E080B23B7278610223D1
:10721000ADF81C300023ADF81E30ADF820300A93D5
:1072200098F800302F2B0BD10396CDF808A00196CB
:10723000CDF800B0334607AA1F494046FDF72EFCA3
:10724000BDF81E20BDF820303C2101FB0233BDF803
:107250001C204FF4616101FB0233BB610A9D09F1FF
:107260000109B9F1020F454407F11C077FF474AF1F
:107270006068FFF7F5FD084B226A1A60E36B9B1A02
:10728000074A18BF012313600DB0BDE8F08F00BF9F
:1072900068790D00E0E70320E8E703206B790D0033
:1072A000E4E7032008E30320D3E703206F790D0010
:1072B00092790D007E790D0091790D00C8E70320C9
:1072C0002DE9F84F07468B46904600F0D9F8194B48
:1072D0001D689A463DB15C46234613F8012B42B126
:1072E0003D2A1C46F8D1384600F0CBF80020BDE816
:1072F000F88FCBEB0404A94659F8040B0028F2D010
:1073000022465946FFF70FFD88B959F8043C1E196B
:107310001B5D3D2B0BD1DAF80030ED1AAD1038466D
:10732000C8F8005000F0ADF8701CBDE8F88F4D466D
:10733000E1E700BF50E3032007B501AAFFF7C0FF54
:1073400003B05DF804FB00000048704710E3032021
:107350000268474BF0B592FBF3F403FB1422002ABA
:10736000BCBF02F5A83202F5C0724FF4616004F5AB
:107370002F2492FBF0F300FB13224FF03C00ACBF34
:1073800004F66C2404F66B248B6092FBF0F300FB94
:1073900013224B600A600723E21C92FBF3F3C3EB5A
:1073A000C303D31A8B61334B334D94FBF5F503FBC9
:1073B000054448F6AC62B4FBF2F2224440F2B45702
:1073C000B4FBF7F3D21A2D48B4FBF0F048F69466FC
:1073D000131AB3FBF6F6344440F26D12B3FBF2F02D
:1073E000B3FBF7F3E31A02FB1033992403EB830298
:1073F0000232B2FBF4F20A2A04FB02F404F10206A0
:107400004FF00504B6FBF4F434BF02266FF0090612
:1074100016444FF4C87202FB05055F1C012E98BF8D
:107420000135B3F5997FA7EB040702D3A3F5997251
:1074300014E0820705D16424B0FBF4F204FB1202CD
:107440004AB94FF4C872B0FBF2F402FB1400B0FA70
:1074500080F2520900E001223B331A44A5F26C7518
:107460000023CA614D610E61CF600B620846F0BD1A
:10747000805101004FC5FDFFB13A0200B03A020051
:107480007047704721400D005D400D0089400D00A0
:107490008D400D000000000074656D7065726174B0
:1074A0007572650068756D696469747900557064FA
:1074B0006174696E6720636C696D617465206461D5
:1074C00074612066696C6500636C696D6174654107
:1074D00076657261676555706461746500000000CF
:1074E0000000000000000000DF4A0D00E94A0D0026
:1074F000F34A0D00FD4A0D00074B0D00134B0D0024
:107500001F4B0D002B4B0D00334B0D003D4B0D0061
:10751000474B0D000000000000000000874C0D00EC
:107520007D4C0D00734C0D00694C0D005D4C0D0041
:10753000514C0D00454C0D003D4C0D00334C0D00E1
:10754000294C0D00474B0D0000000000000000001A
:10755000034E0D00F94D0D00EF4D0D00A54D0D0032
:10756000E34D0D00D74D0D00CB4D0D00C34D0D006B
:10757000B94D0D00AF4D0D00474B0D000000000050
:1075800000000000214E0D006B4E0D00434E0D001B
:10759000234E0D004B4E0D00534E0D005B4E0D0063
:1075A000634E0D0000000000000000004F4F0D0072
:1075B0009F4F0D00AD4F0D00755A0D00634F0D002C
:1075C000854F0D00714F0D00994F0D00514F0D006B
:1075D000554F0D0000000000000000005B500D0042
:1075E000AB500D00B9500D00755A0D0097500D00AD
:1075F0005D500D0073500D00A5500D0089500D0019
:1076000057500D00000000000000000071510D00F7
:1076100061510D0063510D000000000000000000EA
:1076200045520D004B520D008F520D0059520D0066
:1076300047520D00252B3033643A25303275002532
:10764000592D256D2D25645425483A254D3A25534D
:10765000257A0061736374696D6500626175640009
:1076600053657269616C0053657269616C310074B5
:1076700079706500706172616D00636D64006964AA
:1076800000686E64007374726D0066696C74006CDF
:10769000766C0061646448616E646C65720072654A
:1076A0006D6F766548616E646C657200656E756DB0
:1076B00048616E646C657273004A534F4E53747226
:1076C00065616D4C6F6748616E646C6572006170D6
:1076D0007000253031307520005D20002564002CBD
:1076E000200028293A2000205B00636F6465203D5C
:1076F000200025690064657461696C73203D200079
:107700000D0A0066006C6E00666E00636F646500B3
:1077100064657461696C006E6F6E6500747261639C
:107720006500696E666F007761726E006572726FD8
:10773000720070616E696300616C6C0077697269D8
:107740006E670053797374656D20736C6565702086
:10775000636F6E66696775726174696F6E206973B5
:1077600020696E76616C69642E00000000000000E4
:10777000000000008F5E0D00855E0D007B5E0D0039
:10778000715E0D00655E0D00595E0D004D5E0D00D1
:10779000455E0D003B5E0D00315E0D00474B0D0058
:1077A00000002020202020202020202828282828F1
:1077B00020202020202020202020202020202020C9
:1077C0002020881010101010101010101010101021
:1077D0001010040404040404040404041010101021
:1077E00010101041414141414101010101010101DC
:1077F000010101010101010101010101011010104C
:1078000010101042424242424202020202020202AE
:10781000020202020202020202020202021010101E
:107820001020000000000000000000000000000028
:107830000000000000000000000000000000000048
:107840000000000000000000000000000000000038
:107850000000000000000000000000000000000028
:107860000000000000000000000000000000000018
:107870000000000000000000000000000000000008
:1078800000000000000000000000000000000000F8
:1078900000000000000000000000000000000000E8
:1078A00000000000000000000000000000000000D8
:1078B00000000000000000000000000000000000C8
:1078C00000000000000000000000000000000000B8
:1078D00000000000000000000000000000000000A8
:1078E0000000000000000000000000000000000098
:1078F0000000000000000000000000000000000088
:1079000000000000430000001F0000001C000000F9
:107910001F0000001E0000001F0000001E000000ED
:107920001F0000001F0000001E0000001F000000DC
:107930001E0000001F0000001F0000001D000000CE
:107940001F0000001E0000001F0000001E000000BD
:107950001F0000001F0000001E0000001F000000AC
:107960001E0000001F000000545A00474D5400251F
:1079700031305B5E302D392C2B2D5D256E004D2571
:107980006875256E2E256875256E2E256875256E01
:10799000002F256875256E3A256875256E3A25688D
:1079A00075256E00ED420D008D460D00154C0D0045
:1079B000554D0D000D4E0D0009590D00515A0D0089
:1079C000655A0D00195B0D00FD5D0D00995E0D00FF
:1079D000755F0D00F95F0D00BD600D0081610D0048
:0479E00000000000A3
:1079E40053760D00A1770D0000000000A4780D006F
:1079F400C4780D00E4780D000000000000000000D1
:107A0400000000000000000004790D0000000000E8
:107A14000000000000000000000000000000000062
:107A24000000000000000000000000000000000052
:107A34000000000000000000000000000000000042
:107A44000000000000000000A4E203206B790D0098
:107A54006B790D0001000000000000004A000000E6
:107A64000000000000000000000000000000000012
:107A740000000000000000004A00000000000000B8
:107A840000000000000000000000000000000000F2
:087A940000000000ECE70320F4
:107A9C00FFFFFFFF00000102030405060708090AA7
:107AAC000B0C0D0E0F101112131415161718191AA2
:087ABC001B1C1D1E1F202800E9
:047AC40078563412AA
:04000003D0004020C9
:00000001FF
